{
    "contractName": "QFunding",
    "abi": [
        {
            "inputs": [],
            "payable": false,
            "stateMutability": "nonpayable",
            "type": "constructor"
        },
        {
            "constant": true,
            "inputs": [],
            "name": "currentBal",
            "outputs": [
                {
                    "internalType": "uint256",
                    "name": "",
                    "type": "uint256"
                }
            ],
            "payable": false,
            "stateMutability": "view",
            "type": "function"
        },
        {
            "constant": false,
            "inputs": [
                {
                    "internalType": "uint256",
                    "name": "state",
                    "type": "uint256"
                }
            ],
            "name": "changeState",
            "outputs": [],
            "payable": false,
            "stateMutability": "nonpayable",
            "type": "function"
        },
        {
            "constant": false,
            "inputs": [
                {
                    "internalType": "address payable",
                    "name": "projectOwner",
                    "type": "address"
                },
                {
                    "internalType": "uint256",
                    "name": "projectID",
                    "type": "uint256"
                }
            ],
            "name": "createProject",
            "outputs": [],
            "payable": false,
            "stateMutability": "nonpayable",
            "type": "function"
        },
        {
            "constant": false,
            "inputs": [],
            "name": "calandPayoutMatch",
            "outputs": [],
            "payable": false,
            "stateMutability": "nonpayable",
            "type": "function"
        }
    ],
    "bytecode": "0x60806040526402dfdaca2d6000556402dfdc1bad60015534801561002257600080fd5b5033600260006101000a81548173ffffffffffffffffffffffffffffffffffffffff021916908373ffffffffffffffffffffffffffffffffffffffff160217905550604051610070906100f6565b604051809103906000f08015801561008c573d6000803e3d6000fd5b50600560006101000a81548173ffffffffffffffffffffffffffffffffffffffff021916908373ffffffffffffffffffffffffffffffffffffffff1602179055506000600260146101000a81548160ff021916908360028111156100ec57fe5b0217905550610103565b610587806112c683390190565b6111b4806101126000396000f3fe608060405234801561001057600080fd5b506004361061004c5760003560e01c80631a3b32dc146100515780636fc443441461005b578063b00741cb14610079578063e82d6572146100a7575b600080fd5b6100596100f5565b005b610063610500565b6040518082815260200191505060405180910390f35b6100a56004803603602081101561008f57600080fd5b8101908080359060200190929190505050610506565b005b6100f3600480360360408110156100bd57600080fd5b81019080803573ffffffffffffffffffffffffffffffffffffffff16906020019092919080359060200190929190505050610699565b005b600280600281111561010357fe5b600260149054906101000a900460ff16600281111561011e57fe5b14610191576040517f08c379a000000000000000000000000000000000000000000000000000000000815260040180806020018281038252601e8152602001807f436f6e7472616374206e6f7420696e207265717569726564207374617465000081525060200191505060405180910390fd5b6000606060008090505b60048054905081101561027357600481815481106101b557fe5b9060005260206000200160009054906101000a900473ffffffffffffffffffffffffffffffffffffffff1673ffffffffffffffffffffffffffffffffffffffff1663173b8edd6040518163ffffffff1660e01b8152600401602060405180830381600087803b15801561022757600080fd5b505af115801561023b573d6000803e3d6000fd5b505050506040513d602081101561025157600080fd5b810190808051906020019092919050505083019250808060010191505061019b565b5060008090505b6004805490508110156104fa57826004828154811061029557fe5b9060005260206000200160009054906101000a900473ffffffffffffffffffffffffffffffffffffffff1673ffffffffffffffffffffffffffffffffffffffff1663173b8edd6040518163ffffffff1660e01b8152600401602060405180830381600087803b15801561030757600080fd5b505af115801561031b573d6000803e3d6000fd5b505050506040513d602081101561033157600080fd5b81019080805190602001909291905050508161034957fe5b0482828151811061035657fe5b602002602001018181525050600560009054906101000a900473ffffffffffffffffffffffffffffffffffffffff1673ffffffffffffffffffffffffffffffffffffffff16632d1f0e308383815181106103ac57fe5b6020026020010151600484815481106103c157fe5b9060005260206000200160009054906101000a900473ffffffffffffffffffffffffffffffffffffffff1673ffffffffffffffffffffffffffffffffffffffff16638da5cb5b6040518163ffffffff1660e01b815260040160206040518083038186803b15801561043157600080fd5b505afa158015610445573d6000803e3d6000fd5b505050506040513d602081101561045b57600080fd5b81019080805190602001909291905050506040518363ffffffff1660e01b8152600401808381526020018273ffffffffffffffffffffffffffffffffffffffff1673ffffffffffffffffffffffffffffffffffffffff16815260200192505050600060405180830381600087803b1580156104d557600080fd5b505af11580156104e9573d6000803e3d6000fd5b50505050808060010191505061027a565b50505050565b60035481565b600260009054906101000a900473ffffffffffffffffffffffffffffffffffffffff1673ffffffffffffffffffffffffffffffffffffffff163373ffffffffffffffffffffffffffffffffffffffff16146105ac576040517f08c379a000000000000000000000000000000000000000000000000000000000815260040180806020018281038252602481526020018061115c6024913960400191505060405180910390fd5b600181141561063157600054421161062c576040517f08c379a000000000000000000000000000000000000000000000000000000000815260040180806020018281038252601f8152602001807f6f6e676f696e672070686173652063616e6e6f7420626520737461727465640081525060200191505060405180910390fd5b610696565b6002811415610695576001544211610694576040517f08c379a000000000000000000000000000000000000000000000000000000000815260040180806020018281038252602181526020018061113b6021913960400191505060405180910390fd5b5b5b50565b600260009054906101000a900473ffffffffffffffffffffffffffffffffffffffff1673ffffffffffffffffffffffffffffffffffffffff163373ffffffffffffffffffffffffffffffffffffffff161461073f576040517f08c379a000000000000000000000000000000000000000000000000000000000815260040180806020018281038252602481526020018061115c6024913960400191505060405180910390fd5b600080600281111561074d57fe5b600260149054906101000a900460ff16600281111561076857fe5b146107db576040517f08c379a000000000000000000000000000000000000000000000000000000000815260040180806020018281038252601e8152602001807f436f6e7472616374206e6f7420696e207265717569726564207374617465000081525060200191505060405180910390fd5b600083836040516107eb906108b3565b808373ffffffffffffffffffffffffffffffffffffffff1673ffffffffffffffffffffffffffffffffffffffff16815260200182815260200192505050604051809103906000f080158015610844573d6000803e3d6000fd5b50905060048190806001815401808255809150509060018203906000526020600020016000909192909190916101000a81548173ffffffffffffffffffffffffffffffffffffffff021916908373ffffffffffffffffffffffffffffffffffffffff1602179055505050505050565b61087a806108c18339019056fe608060405234801561001057600080fd5b5060405161087a38038061087a8339818101604052604081101561003357600080fd5b81019080805190602001909291908051906020019092919050505080600181905550816000806101000a81548173ffffffffffffffffffffffffffffffffffffffff021916908373ffffffffffffffffffffffffffffffffffffffff1602179055506000600260006101000a81548160ff021916908360028111156100b457fe5b021790555050506107b0806100ca6000396000f3fe6080604052600436106100555760003560e01c8063173b8edd1461005a5780636fc44344146100855780638da5cb5b146100b0578063b00741cb14610107578063d7bb99ba14610142578063e2ae93fb1461014c575b600080fd5b34801561006657600080fd5b5061006f6101b1565b6040518082815260200191505060405180910390f35b34801561009157600080fd5b5061009a610274565b6040518082815260200191505060405180910390f35b3480156100bc57600080fd5b506100c561027a565b604051808273ffffffffffffffffffffffffffffffffffffffff1673ffffffffffffffffffffffffffffffffffffffff16815260200191505060405180910390f35b34801561011357600080fd5b506101406004803603602081101561012a57600080fd5b810190808035906020019092919050505061029f565b005b61014a610437565b005b34801561015857600080fd5b5061019b6004803603602081101561016f57600080fd5b81019080803573ffffffffffffffffffffffffffffffffffffffff169060200190929190505050610669565b6040518082815260200191505060405180910390f35b600080600090505b6006805490508110156102615761024560046000600684815481106101da57fe5b9060005260206000200160009054906101000a900473ffffffffffffffffffffffffffffffffffffffff1673ffffffffffffffffffffffffffffffffffffffff1673ffffffffffffffffffffffffffffffffffffffff16815260200190815260200160002054610681565b60056000828254019250508190555080806001019150506101b9565b5061026f60055460026106c8565b905090565b60035481565b6000809054906101000a900473ffffffffffffffffffffffffffffffffffffffff1681565b6000809054906101000a900473ffffffffffffffffffffffffffffffffffffffff1673ffffffffffffffffffffffffffffffffffffffff163373ffffffffffffffffffffffffffffffffffffffff1614610344576040517f08c379a00000000000000000000000000000000000000000000000000000000081526004018080602001828103825260248152602001806107586024913960400191505060405180910390fd5b60018114156103cc576402dfdaca2d42116103c7576040517f08c379a000000000000000000000000000000000000000000000000000000000815260040180806020018281038252601f8152602001807f6f6e676f696e672070686173652063616e6e6f7420626520737461727465640081525060200191505060405180910390fd5b610434565b6002811415610433576402dfdc1bad4211610432576040517f08c379a00000000000000000000000000000000000000000000000000000000081526004018080602001828103825260218152602001806107376021913960400191505060405180910390fd5b5b5b50565b600180600281111561044557fe5b600260009054906101000a900460ff16600281111561046057fe5b146104d3576040517f08c379a000000000000000000000000000000000000000000000000000000000815260040180806020018281038252601e8152602001807f436f6e7472616374206e6f7420696e207265717569726564207374617465000081525060200191505060405180910390fd5b60003490506000600460003373ffffffffffffffffffffffffffffffffffffffff1673ffffffffffffffffffffffffffffffffffffffff1681526020019081526020016000205414156105cf5760063390806001815401808255809150509060018203906000526020600020016000909192909190916101000a81548173ffffffffffffffffffffffffffffffffffffffff021916908373ffffffffffffffffffffffffffffffffffffffff1602179055505080600460003373ffffffffffffffffffffffffffffffffffffffff1673ffffffffffffffffffffffffffffffffffffffff16815260200190815260200160002081905550610655565b80600460003373ffffffffffffffffffffffffffffffffffffffff1673ffffffffffffffffffffffffffffffffffffffff1681526020019081526020016000205401600460003373ffffffffffffffffffffffffffffffffffffffff1673ffffffffffffffffffffffffffffffffffffffff168152602001908152602001600020819055505b806003600082825401925050819055505050565b60046020528060005260406000206000915090505481565b6000806002838161068e57fe5b04905060008090505b8082146106be5781905060028285816106ac57fe5b048301816106b657fe5b049150610697565b8192505050919050565b6000808214156106db5760019050610730565b6001600283816106e757fe5b06141561070457826106fc84600185036106c8565b029050610730565b610718836002848161071257fe5b046106c8565b61072c846002858161072657fe5b046106c8565b0290505b9291505056fe636f6d706c657465642070686173652063616e6e6f74206265207374617274656443616e6e6f7420616c6c6f7720616363657373206f74686572207468616e206f776e6572a265627a7a72315820d0d4d941c2f5c6b1eab044ddf16ebf4a8abbca826321b65aa7184d02f5d02e7764736f6c63430005100032636f6d706c657465642070686173652063616e6e6f74206265207374617274656443616e6e6f7420616c6c6f7720616363657373206f74686572207468616e206f776e6572a265627a7a723158205070cd8f0af99e6bc334047f23472fe5d7702fce150d092b4f373b650494215a64736f6c63430005100032608060405234801561001057600080fd5b5033600260006101000a81548173ffffffffffffffffffffffffffffffffffffffff021916908373ffffffffffffffffffffffffffffffffffffffff16021790555060008060006101000a81548160ff0219169083600281111561007057fe5b0217905550610503806100846000396000f3fe6080604052600436106100345760003560e01c80631c1eb764146100395780632d1f0e3014610043578063b00741cb14610091575b600080fd5b6100416100cc565b005b61008f6004803603604081101561005957600080fd5b8101908080359060200190929190803573ffffffffffffffffffffffffffffffffffffffff1690602001909291905050506101fb565b005b34801561009d57600080fd5b506100ca600480360360208110156100b457600080fd5b81019080803590602001909291905050506102f0565b005b60003490506000600360003373ffffffffffffffffffffffffffffffffffffffff1673ffffffffffffffffffffffffffffffffffffffff1681526020019081526020016000205414156101625780600360003373ffffffffffffffffffffffffffffffffffffffff1673ffffffffffffffffffffffffffffffffffffffff168152602001908152602001600020819055506101e8565b80600360003373ffffffffffffffffffffffffffffffffffffffff1673ffffffffffffffffffffffffffffffffffffffff1681526020019081526020016000205401600360003373ffffffffffffffffffffffffffffffffffffffff1673ffffffffffffffffffffffffffffffffffffffff168152602001908152602001600020819055505b8060016000828254019250508190555050565b600260009054906101000a900473ffffffffffffffffffffffffffffffffffffffff1673ffffffffffffffffffffffffffffffffffffffff163373ffffffffffffffffffffffffffffffffffffffff16146102a1576040517f08c379a00000000000000000000000000000000000000000000000000000000081526004018080602001828103825260248152602001806104ab6024913960400191505060405180910390fd5b8073ffffffffffffffffffffffffffffffffffffffff166108fc60015484029081150290604051600060405180830381858888f193505050501580156102eb573d6000803e3d6000fd5b505050565b600260009054906101000a900473ffffffffffffffffffffffffffffffffffffffff1673ffffffffffffffffffffffffffffffffffffffff163373ffffffffffffffffffffffffffffffffffffffff1614610396576040517f08c379a00000000000000000000000000000000000000000000000000000000081526004018080602001828103825260248152602001806104ab6024913960400191505060405180910390fd5b600181141561041e576402dfdaca2d4211610419576040517f08c379a000000000000000000000000000000000000000000000000000000000815260040180806020018281038252601f8152602001807f6f6e676f696e672070686173652063616e6e6f7420626520737461727465640081525060200191505060405180910390fd5b610486565b6002811415610485576402dfdc1bad4211610484576040517f08c379a000000000000000000000000000000000000000000000000000000000815260040180806020018281038252602181526020018061048a6021913960400191505060405180910390fd5b5b5b5056fe636f6d706c657465642070686173652063616e6e6f74206265207374617274656443616e6e6f7420616c6c6f7720616363657373206f74686572207468616e206f776e6572a265627a7a723158204589a4565380c49a6f791cb4b94d411b077f8e9f73059194674eccf1ddc356d964736f6c63430005100032",
    "source": "// SPDX-License-Identifier: GPL-3.0\r\n\r\npragma solidity >=0.4.22 <0.9.0;\r\n\r\nimport \"./Project.sol\";\r\nimport \"./Pool.sol\";\r\n\r\ncontract QFunding{\r\n   \r\n    enum State {initialized, ongoing, completed}\r\n    \r\n    uint256 startRaisingFrom = 12345678765 - 1 days;\r\n    uint256 raiseBy = 12345678765;\r\n    address owner;\r\n    State currentState;\r\n    uint256 public currentBal;\r\n    Project [] projectsListed;\r\n    Pool sponsorPool;\r\n    \r\n    //modifier to allow access only to the owner.\r\n    modifier isOwner() {\r\n        require(msg.sender == owner, \"Cannot allow access other than owner\");\r\n        _;\r\n    }\r\n    \r\n    //modifier to allow the function to proceed only if contract is in intended state.\r\n    modifier isState(State reqState) {\r\n        require(currentState == reqState, \"Contract not in required state\");\r\n        _;\r\n    }\r\n   \r\n   //initializes the owner of the contract and the sponsor pool contract and currentState of the\r\n   //contract to initialized.\r\n   constructor () public {\r\n       owner = msg.sender;\r\n       sponsorPool = new Pool();\r\n       currentState = State.initialized;\r\n   }\r\n   \r\n   \r\n   //function to change the currentState variable of the contract based on comparing block timestamp \r\n   //to constant raiseBy and startRaisingFrom to meet isState modifier requirements. Currently only\r\n   //the owner can change the phase but chainlink keeper can be implemented later to automate the \r\n   //change state process.\r\n   function changeState(uint state) public isOwner {\r\n        if(state == 1){\r\n            require(block.timestamp > startRaisingFrom, \"ongoing phase cannot be started\");\r\n        } else if(state ==2){\r\n            require(block.timestamp > raiseBy, \"completed phase cannot be started\");\r\n        }\r\n    }\r\n   \r\n   //here the project implementation is such that projects participating in the funding is controlled\r\n   //by the Funding organizers. If we have to implement it such that anyone can create a project and\r\n   //participate in the funding remove isOwner modifier, remove the address projectOwner variable then\r\n   //instead pass msg.sender to the Project contract instance.\r\n   function createProject(address payable projectOwner, uint projectID) public isOwner isState(State.initialized) {\r\n       Project newProject = new Project(projectOwner, projectID);\r\n       projectsListed.push(newProject);\r\n   }\r\n   \r\n   \r\n   //this function recieves the square of sum of sqrt of contributions recieved by individual projects \r\n   //and sums it by iterating over the projectsListed array. It iterates the projectsListed array once \r\n   //again, calculates the match ratio and calls the payout function in pool contract with the required \r\n   //arguments. Since this computation requires very much gas this can be computed off chain using\r\n   //chainlink external adapters which can be later implemented.\r\n   function calandPayoutMatch() public isState(State.completed){\r\n       uint sumSquaredSqrtFundsSum;\r\n       uint[] memory matchRatio;\r\n       \r\n       for(uint i = 0; i < projectsListed.length; i++){\r\n           //sumSquaredSqrtFundsSum.add(projectsListed[i].getSquaredSqrtFundsSum());\r\n           sumSquaredSqrtFundsSum += projectsListed[i].getSquaredSqrtFundsSum();\r\n       }\r\n       \r\n       for(uint i = 0; i < projectsListed.length; i++){\r\n           // redundant variable array matchRatio\r\n           matchRatio[i] = projectsListed[i].getSquaredSqrtFundsSum()/sumSquaredSqrtFundsSum;\r\n           sponsorPool.payoutPoolMatch(matchRatio[i], projectsListed[i].owner());\r\n       }\r\n       \r\n   }\r\n}\r\n",
    "sourcePath": "D:\\Programming\\Hackathon-DecentralHacks\\Quadratic-Funding\\contracts\\QFunding.sol",
    "compiler": {
        "name": "solc",
        "version": "0.5.16+commit.9c3226ce.Emscripten.clang"
    },
    "schemaVersion": "3.4.3",
    "updatedAt": "2021-09-30T18:48:36.620Z",
    "devdoc": {
        "methods": {}
    },
    "userdoc": {
        "methods": {}
    }
}