{
	"data": {
		"bytecode": {
			"linkReferences": {},
			"object": "60806040526402dfdaca2d6000556402dfdc1bad60015534801561002257600080fd5b5033600260006101000a81548173ffffffffffffffffffffffffffffffffffffffff021916908373ffffffffffffffffffffffffffffffffffffffff160217905550604051610070906100fd565b604051809103906000f08015801561008c573d6000803e3d6000fd5b50600460006101000a81548173ffffffffffffffffffffffffffffffffffffffff021916908373ffffffffffffffffffffffffffffffffffffffff1602179055506000600260146101000a81548160ff021916908360028111156100f3576100f261010a565b5b0217905550610139565b61086680611e4183390190565b7f4e487b7100000000000000000000000000000000000000000000000000000000600052602160045260246000fd5b611cf9806101486000396000f3fe60806040523480156200001157600080fd5b5060043610620000525760003560e01c80631a3b32dc1462000057578063b00741cb1462000063578063e75c60251462000083578063e82d657214620000a5575b600080fd5b62000061620000c5565b005b6200008160048036038101906200007b9190620008dc565b620004d8565b005b6200008d62000618565b6040516200009c919062000a3c565b60405180910390f35b620000c36004803603810190620000bd919062000895565b6200063e565b005b6002806002811115620000dd57620000dc62000cda565b5b600260149054906101000a900460ff16600281111562000102576200010162000cda565b5b1462000145576040517f08c379a00000000000000000000000000000000000000000000000000000000081526004016200013c9062000a9d565b60405180910390fd5b6000606060005b60038054905081101562000244576003818154811062000171576200017062000d09565b5b9060005260206000200160009054906101000a900473ffffffffffffffffffffffffffffffffffffffff1673ffffffffffffffffffffffffffffffffffffffff1663173b8edd6040518163ffffffff1660e01b8152600401602060405180830381600087803b158015620001e457600080fd5b505af1158015620001f9573d6000803e3d6000fd5b505050506040513d601f19601f820116820180604052508101906200021f91906200090e565b836200022c919062000b1f565b925080806200023b9062000c2e565b9150506200014c565b5060005b600380549050811015620004d25782600382815481106200026e576200026d62000d09565b5b9060005260206000200160009054906101000a900473ffffffffffffffffffffffffffffffffffffffff1673ffffffffffffffffffffffffffffffffffffffff1663173b8edd6040518163ffffffff1660e01b8152600401602060405180830381600087803b158015620002e157600080fd5b505af1158015620002f6573d6000803e3d6000fd5b505050506040513d601f19601f820116820180604052508101906200031c91906200090e565b62000328919062000b7c565b8282815181106200033e576200033d62000d09565b5b602002602001018181525050600460009054906101000a900473ffffffffffffffffffffffffffffffffffffffff1673ffffffffffffffffffffffffffffffffffffffff16632d1f0e308383815181106200039e576200039d62000d09565b5b602002602001015160038481548110620003bd57620003bc62000d09565b5b9060005260206000200160009054906101000a900473ffffffffffffffffffffffffffffffffffffffff1673ffffffffffffffffffffffffffffffffffffffff16638da5cb5b6040518163ffffffff1660e01b815260040160206040518083038186803b1580156200042e57600080fd5b505afa15801562000443573d6000803e3d6000fd5b505050506040513d601f19601f8201168201806040525081019062000469919062000863565b6040518363ffffffff1660e01b81526004016200048892919062000ae1565b600060405180830381600087803b158015620004a357600080fd5b505af1158015620004b8573d6000803e3d6000fd5b505050508080620004c99062000c2e565b91505062000248565b50505050565b600260009054906101000a900473ffffffffffffffffffffffffffffffffffffffff1673ffffffffffffffffffffffffffffffffffffffff163373ffffffffffffffffffffffffffffffffffffffff16146200056b576040517f08c379a0000000000000000000000000000000000000000000000000000000008152600401620005629062000a7b565b60405180910390fd5b6001811415620005c2576000544211620005bc576040517f08c379a0000000000000000000000000000000000000000000000000000000008152600401620005b39062000abf565b60405180910390fd5b62000615565b60028114156200061457600154421162000613576040517f08c379a00000000000000000000000000000000000000000000000000000000081526004016200060a9062000a59565b60405180910390fd5b5b5b50565b600460009054906101000a900473ffffffffffffffffffffffffffffffffffffffff1681565b600260009054906101000a900473ffffffffffffffffffffffffffffffffffffffff1673ffffffffffffffffffffffffffffffffffffffff163373ffffffffffffffffffffffffffffffffffffffff1614620006d1576040517f08c379a0000000000000000000000000000000000000000000000000000000008152600401620006c89062000a7b565b60405180910390fd5b6000806002811115620006e957620006e862000cda565b5b600260149054906101000a900460ff1660028111156200070e576200070d62000cda565b5b1462000751576040517f08c379a0000000000000000000000000000000000000000000000000000000008152600401620007489062000a9d565b60405180910390fd5b600083836040516200076390620007f9565b6200077092919062000a0f565b604051809103906000f0801580156200078d573d6000803e3d6000fd5b5090506003819080600181540180825580915050600190039060005260206000200160009091909190916101000a81548173ffffffffffffffffffffffffffffffffffffffff021916908373ffffffffffffffffffffffffffffffffffffffff16021790555050505050565b610e628062000e6283390190565b600081359050620008188162000e2d565b92915050565b6000815190506200082f8162000e2d565b92915050565b600081359050620008468162000e47565b92915050565b6000815190506200085d8162000e47565b92915050565b6000602082840312156200087c576200087b62000d38565b5b60006200088c848285016200081e565b91505092915050565b60008060408385031215620008af57620008ae62000d38565b5b6000620008bf8582860162000807565b9250506020620008d28582860162000835565b9150509250929050565b600060208284031215620008f557620008f462000d38565b5b6000620009058482850162000835565b91505092915050565b60006020828403121562000927576200092662000d38565b5b600062000937848285016200084c565b91505092915050565b6200094b8162000bb4565b82525050565b6200095c8162000bf2565b82525050565b60006200097160218362000b0e565b91506200097e8262000d3d565b604082019050919050565b60006200099860248362000b0e565b9150620009a58262000d8c565b604082019050919050565b6000620009bf601e8362000b0e565b9150620009cc8262000ddb565b602082019050919050565b6000620009e6601f8362000b0e565b9150620009f38262000e04565b602082019050919050565b62000a098162000be8565b82525050565b600060408201905062000a26600083018562000940565b62000a356020830184620009fe565b9392505050565b600060208201905062000a53600083018462000951565b92915050565b6000602082019050818103600083015262000a748162000962565b9050919050565b6000602082019050818103600083015262000a968162000989565b9050919050565b6000602082019050818103600083015262000ab881620009b0565b9050919050565b6000602082019050818103600083015262000ada81620009d7565b9050919050565b600060408201905062000af86000830185620009fe565b62000b07602083018462000940565b9392505050565b600082825260208201905092915050565b600062000b2c8262000be8565b915062000b398362000be8565b9250827fffffffffffffffffffffffffffffffffffffffffffffffffffffffffffffffff0382111562000b715762000b7062000c7c565b5b828201905092915050565b600062000b898262000be8565b915062000b968362000be8565b92508262000ba95762000ba862000cab565b5b828204905092915050565b600062000bc18262000bc8565b9050919050565b600073ffffffffffffffffffffffffffffffffffffffff82169050919050565b6000819050919050565b600062000bff8262000c06565b9050919050565b600062000c138262000c1a565b9050919050565b600062000c278262000bc8565b9050919050565b600062000c3b8262000be8565b91507fffffffffffffffffffffffffffffffffffffffffffffffffffffffffffffffff82141562000c715762000c7062000c7c565b5b600182019050919050565b7f4e487b7100000000000000000000000000000000000000000000000000000000600052601160045260246000fd5b7f4e487b7100000000000000000000000000000000000000000000000000000000600052601260045260246000fd5b7f4e487b7100000000000000000000000000000000000000000000000000000000600052602160045260246000fd5b7f4e487b7100000000000000000000000000000000000000000000000000000000600052603260045260246000fd5b600080fd5b7f636f6d706c657465642070686173652063616e6e6f742062652073746172746560008201527f6400000000000000000000000000000000000000000000000000000000000000602082015250565b7f43616e6e6f7420616c6c6f7720616363657373206f74686572207468616e206f60008201527f776e657200000000000000000000000000000000000000000000000000000000602082015250565b7f436f6e7472616374206e6f7420696e2072657175697265642073746174650000600082015250565b7f6f6e676f696e672070686173652063616e6e6f74206265207374617274656400600082015250565b62000e388162000bb4565b811462000e4457600080fd5b50565b62000e528162000be8565b811462000e5e57600080fd5b5056fe60806040523480156200001157600080fd5b5060405162000e6238038062000e628339818101604052810190620000379190620000e2565b80600181905550816000806101000a81548173ffffffffffffffffffffffffffffffffffffffff021916908373ffffffffffffffffffffffffffffffffffffffff1602179055506000600260006101000a81548160ff02191690836002811115620000a757620000a662000167565b5b02179055505050620001cf565b600081519050620000c5816200019b565b92915050565b600081519050620000dc81620001b5565b92915050565b60008060408385031215620000fc57620000fb62000196565b5b60006200010c85828601620000b4565b92505060206200011f85828601620000cb565b9150509250929050565b600062000136826200013d565b9050919050565b600073ffffffffffffffffffffffffffffffffffffffff82169050919050565b6000819050919050565b7f4e487b7100000000000000000000000000000000000000000000000000000000600052602160045260246000fd5b600080fd5b620001a68162000129565b8114620001b257600080fd5b50565b620001c0816200015d565b8114620001cc57600080fd5b50565b610c8380620001df6000396000f3fe6080604052600436106100555760003560e01c8063173b8edd1461005a5780636fc44344146100855780638da5cb5b146100b0578063b00741cb146100db578063d7bb99ba14610104578063e2ae93fb1461010e575b600080fd5b34801561006657600080fd5b5061006f61014b565b60405161007c9190610865565b60405180910390f35b34801561009157600080fd5b5061009a610224565b6040516100a79190610865565b60405180910390f35b3480156100bc57600080fd5b506100c561022a565b6040516100d291906107ca565b60405180910390f35b3480156100e757600080fd5b5061010260048036038101906100fd91906106f3565b61024e565b005b61010c610386565b005b34801561011a57600080fd5b50610135600480360381019061013091906106c6565b6105a2565b6040516101429190610865565b60405180910390f35b600080600090505b600680549050811015610211576101e6600460006006848154811061017b5761017a610afb565b5b9060005260206000200160009054906101000a900473ffffffffffffffffffffffffffffffffffffffff1673ffffffffffffffffffffffffffffffffffffffff1673ffffffffffffffffffffffffffffffffffffffff168152602001908152602001600020546105ba565b600560008282546101f79190610891565b925050819055508080610209906109f4565b915050610153565b5061021f600554600261060d565b905090565b60035481565b60008054906101000a900473ffffffffffffffffffffffffffffffffffffffff1681565b60008054906101000a900473ffffffffffffffffffffffffffffffffffffffff1673ffffffffffffffffffffffffffffffffffffffff163373ffffffffffffffffffffffffffffffffffffffff16146102dc576040517f08c379a00000000000000000000000000000000000000000000000000000000081526004016102d390610805565b60405180910390fd5b6001811415610331576402dfdaca2d421161032c576040517f08c379a000000000000000000000000000000000000000000000000000000000815260040161032390610845565b60405180910390fd5b610383565b6002811415610382576402dfdc1bad4211610381576040517f08c379a0000000000000000000000000000000000000000000000000000000008152600401610378906107e5565b60405180910390fd5b5b5b50565b600180600281111561039b5761039a610acc565b5b600260009054906101000a900460ff1660028111156103bd576103bc610acc565b5b146103fd576040517f08c379a00000000000000000000000000000000000000000000000000000000081526004016103f490610825565b60405180910390fd5b60003490506000600460003373ffffffffffffffffffffffffffffffffffffffff1673ffffffffffffffffffffffffffffffffffffffff1681526020019081526020016000205414156104f6576006339080600181540180825580915050600190039060005260206000200160009091909190916101000a81548173ffffffffffffffffffffffffffffffffffffffff021916908373ffffffffffffffffffffffffffffffffffffffff16021790555080600460003373ffffffffffffffffffffffffffffffffffffffff1673ffffffffffffffffffffffffffffffffffffffff16815260200190815260200160002081905550610585565b80600460003373ffffffffffffffffffffffffffffffffffffffff1673ffffffffffffffffffffffffffffffffffffffff168152602001908152602001600020546105419190610891565b600460003373ffffffffffffffffffffffffffffffffffffffff1673ffffffffffffffffffffffffffffffffffffffff168152602001908152602001600020819055505b80600360008282546105979190610891565b925050819055505050565b60046020528060005260406000206000915090505481565b6000806002836105ca91906108e7565b905060005b80821461060357819050600282856105e791906108e7565b836105f29190610891565b6105fc91906108e7565b91506105cf565b8192505050919050565b6000808214156106205760019050610696565b600160028361062f9190610a3d565b141561065d578261064c846001856106479190610972565b61060d565b6106569190610918565b9050610696565b6106738360028461066e91906108e7565b61060d565b6106898460028561068491906108e7565b61060d565b6106939190610918565b90505b92915050565b6000813590506106ab81610c1f565b92915050565b6000813590506106c081610c36565b92915050565b6000602082840312156106dc576106db610b2a565b5b60006106ea8482850161069c565b91505092915050565b60006020828403121561070957610708610b2a565b5b6000610717848285016106b1565b91505092915050565b610729816109b8565b82525050565b600061073c602183610880565b915061074782610b2f565b604082019050919050565b600061075f602483610880565b915061076a82610b7e565b604082019050919050565b6000610782601e83610880565b915061078d82610bcd565b602082019050919050565b60006107a5601f83610880565b91506107b082610bf6565b602082019050919050565b6107c4816109ea565b82525050565b60006020820190506107df6000830184610720565b92915050565b600060208201905081810360008301526107fe8161072f565b9050919050565b6000602082019050818103600083015261081e81610752565b9050919050565b6000602082019050818103600083015261083e81610775565b9050919050565b6000602082019050818103600083015261085e81610798565b9050919050565b600060208201905061087a60008301846107bb565b92915050565b600082825260208201905092915050565b600061089c826109ea565b91506108a7836109ea565b9250827fffffffffffffffffffffffffffffffffffffffffffffffffffffffffffffffff038211156108dc576108db610a6e565b5b828201905092915050565b60006108f2826109ea565b91506108fd836109ea565b92508261090d5761090c610a9d565b5b828204905092915050565b6000610923826109ea565b915061092e836109ea565b9250817fffffffffffffffffffffffffffffffffffffffffffffffffffffffffffffffff048311821515161561096757610966610a6e565b5b828202905092915050565b600061097d826109ea565b9150610988836109ea565b92508282101561099b5761099a610a6e565b5b828203905092915050565b60006109b1826109ca565b9050919050565b60006109c3826109ca565b9050919050565b600073ffffffffffffffffffffffffffffffffffffffff82169050919050565b6000819050919050565b60006109ff826109ea565b91507fffffffffffffffffffffffffffffffffffffffffffffffffffffffffffffffff821415610a3257610a31610a6e565b5b600182019050919050565b6000610a48826109ea565b9150610a53836109ea565b925082610a6357610a62610a9d565b5b828206905092915050565b7f4e487b7100000000000000000000000000000000000000000000000000000000600052601160045260246000fd5b7f4e487b7100000000000000000000000000000000000000000000000000000000600052601260045260246000fd5b7f4e487b7100000000000000000000000000000000000000000000000000000000600052602160045260246000fd5b7f4e487b7100000000000000000000000000000000000000000000000000000000600052603260045260246000fd5b600080fd5b7f636f6d706c657465642070686173652063616e6e6f742062652073746172746560008201527f6400000000000000000000000000000000000000000000000000000000000000602082015250565b7f43616e6e6f7420616c6c6f7720616363657373206f74686572207468616e206f60008201527f776e657200000000000000000000000000000000000000000000000000000000602082015250565b7f436f6e7472616374206e6f7420696e2072657175697265642073746174650000600082015250565b7f6f6e676f696e672070686173652063616e6e6f74206265207374617274656400600082015250565b610c28816109a6565b8114610c3357600080fd5b50565b610c3f816109ea565b8114610c4a57600080fd5b5056fea2646970667358221220e7ba7c5533b909f7701cc2ce1762c4a71c473520bb59e7aa0f0de426ac85742764736f6c63430008070033a264697066735822122010a16199ca0320e78d46d685150b0d3e4df9c1422be941bdce665d56b687a42864736f6c63430008070033608060405234801561001057600080fd5b5033600260006101000a81548173ffffffffffffffffffffffffffffffffffffffff021916908373ffffffffffffffffffffffffffffffffffffffff16021790555060008060006101000a81548160ff0219169083600281111561007757610076610081565b5b02179055506100b0565b7f4e487b7100000000000000000000000000000000000000000000000000000000600052602160045260246000fd5b6107a7806100bf6000396000f3fe6080604052600436106100345760003560e01c80631c1eb764146100395780632d1f0e3014610043578063b00741cb1461005f575b600080fd5b610041610088565b005b61005d60048036038101906100589190610442565b6101c9565b005b34801561006b57600080fd5b5061008660048036038101906100819190610415565b6102b1565b005b60003490506000600360003373ffffffffffffffffffffffffffffffffffffffff1673ffffffffffffffffffffffffffffffffffffffff16815260200190815260200160002054141561011e5780600360003373ffffffffffffffffffffffffffffffffffffffff1673ffffffffffffffffffffffffffffffffffffffff168152602001908152602001600020819055506101ad565b80600360003373ffffffffffffffffffffffffffffffffffffffff1673ffffffffffffffffffffffffffffffffffffffff16815260200190815260200160002054610169919061055c565b600360003373ffffffffffffffffffffffffffffffffffffffff1673ffffffffffffffffffffffffffffffffffffffff168152602001908152602001600020819055505b80600160008282546101bf919061055c565b9250508190555050565b600260009054906101000a900473ffffffffffffffffffffffffffffffffffffffff1673ffffffffffffffffffffffffffffffffffffffff163373ffffffffffffffffffffffffffffffffffffffff1614610259576040517f08c379a00000000000000000000000000000000000000000000000000000000081526004016102509061050b565b60405180910390fd5b8073ffffffffffffffffffffffffffffffffffffffff166108fc6001548461028191906105b2565b9081150290604051600060405180830381858888f193505050501580156102ac573d6000803e3d6000fd5b505050565b600260009054906101000a900473ffffffffffffffffffffffffffffffffffffffff1673ffffffffffffffffffffffffffffffffffffffff163373ffffffffffffffffffffffffffffffffffffffff1614610341576040517f08c379a00000000000000000000000000000000000000000000000000000000081526004016103389061050b565b60405180910390fd5b6001811415610396576402dfdaca2d4211610391576040517f08c379a00000000000000000000000000000000000000000000000000000000081526004016103889061052b565b60405180910390fd5b6103e8565b60028114156103e7576402dfdc1bad42116103e6576040517f08c379a00000000000000000000000000000000000000000000000000000000081526004016103dd906104eb565b60405180910390fd5b5b5b50565b6000813590506103fa81610743565b92915050565b60008135905061040f8161075a565b92915050565b60006020828403121561042b5761042a610677565b5b600061043984828501610400565b91505092915050565b6000806040838503121561045957610458610677565b5b600061046785828601610400565b9250506020610478858286016103eb565b9150509250929050565b600061048f60218361054b565b915061049a8261067c565b604082019050919050565b60006104b260248361054b565b91506104bd826106cb565b604082019050919050565b60006104d5601f8361054b565b91506104e08261071a565b602082019050919050565b6000602082019050818103600083015261050481610482565b9050919050565b60006020820190508181036000830152610524816104a5565b9050919050565b60006020820190508181036000830152610544816104c8565b9050919050565b600082825260208201905092915050565b60006105678261063e565b91506105728361063e565b9250827fffffffffffffffffffffffffffffffffffffffffffffffffffffffffffffffff038211156105a7576105a6610648565b5b828201905092915050565b60006105bd8261063e565b91506105c88361063e565b9250817fffffffffffffffffffffffffffffffffffffffffffffffffffffffffffffffff048311821515161561060157610600610648565b5b828202905092915050565b60006106178261061e565b9050919050565b600073ffffffffffffffffffffffffffffffffffffffff82169050919050565b6000819050919050565b7f4e487b7100000000000000000000000000000000000000000000000000000000600052601160045260246000fd5b600080fd5b7f636f6d706c657465642070686173652063616e6e6f742062652073746172746560008201527f6400000000000000000000000000000000000000000000000000000000000000602082015250565b7f43616e6e6f7420616c6c6f7720616363657373206f74686572207468616e206f60008201527f776e657200000000000000000000000000000000000000000000000000000000602082015250565b7f6f6e676f696e672070686173652063616e6e6f74206265207374617274656400600082015250565b61074c8161060c565b811461075757600080fd5b50565b6107638161063e565b811461076e57600080fd5b5056fea264697066735822122032853efcced5c9f863cdd42a2c9bb48971b449f11e6f73227a14ac6753aa98ed64736f6c63430008070033",
			"opcodes": "PUSH1 0x80 PUSH1 0x40 MSTORE PUSH5 0x2DFDACA2D PUSH1 0x0 SSTORE PUSH5 0x2DFDC1BAD PUSH1 0x1 SSTORE CALLVALUE DUP1 ISZERO PUSH2 0x22 JUMPI PUSH1 0x0 DUP1 REVERT JUMPDEST POP CALLER PUSH1 0x2 PUSH1 0x0 PUSH2 0x100 EXP DUP2 SLOAD DUP2 PUSH20 0xFFFFFFFFFFFFFFFFFFFFFFFFFFFFFFFFFFFFFFFF MUL NOT AND SWAP1 DUP4 PUSH20 0xFFFFFFFFFFFFFFFFFFFFFFFFFFFFFFFFFFFFFFFF AND MUL OR SWAP1 SSTORE POP PUSH1 0x40 MLOAD PUSH2 0x70 SWAP1 PUSH2 0xFD JUMP JUMPDEST PUSH1 0x40 MLOAD DUP1 SWAP2 SUB SWAP1 PUSH1 0x0 CREATE DUP1 ISZERO DUP1 ISZERO PUSH2 0x8C JUMPI RETURNDATASIZE PUSH1 0x0 DUP1 RETURNDATACOPY RETURNDATASIZE PUSH1 0x0 REVERT JUMPDEST POP PUSH1 0x4 PUSH1 0x0 PUSH2 0x100 EXP DUP2 SLOAD DUP2 PUSH20 0xFFFFFFFFFFFFFFFFFFFFFFFFFFFFFFFFFFFFFFFF MUL NOT AND SWAP1 DUP4 PUSH20 0xFFFFFFFFFFFFFFFFFFFFFFFFFFFFFFFFFFFFFFFF AND MUL OR SWAP1 SSTORE POP PUSH1 0x0 PUSH1 0x2 PUSH1 0x14 PUSH2 0x100 EXP DUP2 SLOAD DUP2 PUSH1 0xFF MUL NOT AND SWAP1 DUP4 PUSH1 0x2 DUP2 GT ISZERO PUSH2 0xF3 JUMPI PUSH2 0xF2 PUSH2 0x10A JUMP JUMPDEST JUMPDEST MUL OR SWAP1 SSTORE POP PUSH2 0x139 JUMP JUMPDEST PUSH2 0x866 DUP1 PUSH2 0x1E41 DUP4 CODECOPY ADD SWAP1 JUMP JUMPDEST PUSH32 0x4E487B7100000000000000000000000000000000000000000000000000000000 PUSH1 0x0 MSTORE PUSH1 0x21 PUSH1 0x4 MSTORE PUSH1 0x24 PUSH1 0x0 REVERT JUMPDEST PUSH2 0x1CF9 DUP1 PUSH2 0x148 PUSH1 0x0 CODECOPY PUSH1 0x0 RETURN INVALID PUSH1 0x80 PUSH1 0x40 MSTORE CALLVALUE DUP1 ISZERO PUSH3 0x11 JUMPI PUSH1 0x0 DUP1 REVERT JUMPDEST POP PUSH1 0x4 CALLDATASIZE LT PUSH3 0x52 JUMPI PUSH1 0x0 CALLDATALOAD PUSH1 0xE0 SHR DUP1 PUSH4 0x1A3B32DC EQ PUSH3 0x57 JUMPI DUP1 PUSH4 0xB00741CB EQ PUSH3 0x63 JUMPI DUP1 PUSH4 0xE75C6025 EQ PUSH3 0x83 JUMPI DUP1 PUSH4 0xE82D6572 EQ PUSH3 0xA5 JUMPI JUMPDEST PUSH1 0x0 DUP1 REVERT JUMPDEST PUSH3 0x61 PUSH3 0xC5 JUMP JUMPDEST STOP JUMPDEST PUSH3 0x81 PUSH1 0x4 DUP1 CALLDATASIZE SUB DUP2 ADD SWAP1 PUSH3 0x7B SWAP2 SWAP1 PUSH3 0x8DC JUMP JUMPDEST PUSH3 0x4D8 JUMP JUMPDEST STOP JUMPDEST PUSH3 0x8D PUSH3 0x618 JUMP JUMPDEST PUSH1 0x40 MLOAD PUSH3 0x9C SWAP2 SWAP1 PUSH3 0xA3C JUMP JUMPDEST PUSH1 0x40 MLOAD DUP1 SWAP2 SUB SWAP1 RETURN JUMPDEST PUSH3 0xC3 PUSH1 0x4 DUP1 CALLDATASIZE SUB DUP2 ADD SWAP1 PUSH3 0xBD SWAP2 SWAP1 PUSH3 0x895 JUMP JUMPDEST PUSH3 0x63E JUMP JUMPDEST STOP JUMPDEST PUSH1 0x2 DUP1 PUSH1 0x2 DUP2 GT ISZERO PUSH3 0xDD JUMPI PUSH3 0xDC PUSH3 0xCDA JUMP JUMPDEST JUMPDEST PUSH1 0x2 PUSH1 0x14 SWAP1 SLOAD SWAP1 PUSH2 0x100 EXP SWAP1 DIV PUSH1 0xFF AND PUSH1 0x2 DUP2 GT ISZERO PUSH3 0x102 JUMPI PUSH3 0x101 PUSH3 0xCDA JUMP JUMPDEST JUMPDEST EQ PUSH3 0x145 JUMPI PUSH1 0x40 MLOAD PUSH32 0x8C379A000000000000000000000000000000000000000000000000000000000 DUP2 MSTORE PUSH1 0x4 ADD PUSH3 0x13C SWAP1 PUSH3 0xA9D JUMP JUMPDEST PUSH1 0x40 MLOAD DUP1 SWAP2 SUB SWAP1 REVERT JUMPDEST PUSH1 0x0 PUSH1 0x60 PUSH1 0x0 JUMPDEST PUSH1 0x3 DUP1 SLOAD SWAP1 POP DUP2 LT ISZERO PUSH3 0x244 JUMPI PUSH1 0x3 DUP2 DUP2 SLOAD DUP2 LT PUSH3 0x171 JUMPI PUSH3 0x170 PUSH3 0xD09 JUMP JUMPDEST JUMPDEST SWAP1 PUSH1 0x0 MSTORE PUSH1 0x20 PUSH1 0x0 KECCAK256 ADD PUSH1 0x0 SWAP1 SLOAD SWAP1 PUSH2 0x100 EXP SWAP1 DIV PUSH20 0xFFFFFFFFFFFFFFFFFFFFFFFFFFFFFFFFFFFFFFFF AND PUSH20 0xFFFFFFFFFFFFFFFFFFFFFFFFFFFFFFFFFFFFFFFF AND PUSH4 0x173B8EDD PUSH1 0x40 MLOAD DUP2 PUSH4 0xFFFFFFFF AND PUSH1 0xE0 SHL DUP2 MSTORE PUSH1 0x4 ADD PUSH1 0x20 PUSH1 0x40 MLOAD DUP1 DUP4 SUB DUP2 PUSH1 0x0 DUP8 DUP1 EXTCODESIZE ISZERO DUP1 ISZERO PUSH3 0x1E4 JUMPI PUSH1 0x0 DUP1 REVERT JUMPDEST POP GAS CALL ISZERO DUP1 ISZERO PUSH3 0x1F9 JUMPI RETURNDATASIZE PUSH1 0x0 DUP1 RETURNDATACOPY RETURNDATASIZE PUSH1 0x0 REVERT JUMPDEST POP POP POP POP PUSH1 0x40 MLOAD RETURNDATASIZE PUSH1 0x1F NOT PUSH1 0x1F DUP3 ADD AND DUP3 ADD DUP1 PUSH1 0x40 MSTORE POP DUP2 ADD SWAP1 PUSH3 0x21F SWAP2 SWAP1 PUSH3 0x90E JUMP JUMPDEST DUP4 PUSH3 0x22C SWAP2 SWAP1 PUSH3 0xB1F JUMP JUMPDEST SWAP3 POP DUP1 DUP1 PUSH3 0x23B SWAP1 PUSH3 0xC2E JUMP JUMPDEST SWAP2 POP POP PUSH3 0x14C JUMP JUMPDEST POP PUSH1 0x0 JUMPDEST PUSH1 0x3 DUP1 SLOAD SWAP1 POP DUP2 LT ISZERO PUSH3 0x4D2 JUMPI DUP3 PUSH1 0x3 DUP3 DUP2 SLOAD DUP2 LT PUSH3 0x26E JUMPI PUSH3 0x26D PUSH3 0xD09 JUMP JUMPDEST JUMPDEST SWAP1 PUSH1 0x0 MSTORE PUSH1 0x20 PUSH1 0x0 KECCAK256 ADD PUSH1 0x0 SWAP1 SLOAD SWAP1 PUSH2 0x100 EXP SWAP1 DIV PUSH20 0xFFFFFFFFFFFFFFFFFFFFFFFFFFFFFFFFFFFFFFFF AND PUSH20 0xFFFFFFFFFFFFFFFFFFFFFFFFFFFFFFFFFFFFFFFF AND PUSH4 0x173B8EDD PUSH1 0x40 MLOAD DUP2 PUSH4 0xFFFFFFFF AND PUSH1 0xE0 SHL DUP2 MSTORE PUSH1 0x4 ADD PUSH1 0x20 PUSH1 0x40 MLOAD DUP1 DUP4 SUB DUP2 PUSH1 0x0 DUP8 DUP1 EXTCODESIZE ISZERO DUP1 ISZERO PUSH3 0x2E1 JUMPI PUSH1 0x0 DUP1 REVERT JUMPDEST POP GAS CALL ISZERO DUP1 ISZERO PUSH3 0x2F6 JUMPI RETURNDATASIZE PUSH1 0x0 DUP1 RETURNDATACOPY RETURNDATASIZE PUSH1 0x0 REVERT JUMPDEST POP POP POP POP PUSH1 0x40 MLOAD RETURNDATASIZE PUSH1 0x1F NOT PUSH1 0x1F DUP3 ADD AND DUP3 ADD DUP1 PUSH1 0x40 MSTORE POP DUP2 ADD SWAP1 PUSH3 0x31C SWAP2 SWAP1 PUSH3 0x90E JUMP JUMPDEST PUSH3 0x328 SWAP2 SWAP1 PUSH3 0xB7C JUMP JUMPDEST DUP3 DUP3 DUP2 MLOAD DUP2 LT PUSH3 0x33E JUMPI PUSH3 0x33D PUSH3 0xD09 JUMP JUMPDEST JUMPDEST PUSH1 0x20 MUL PUSH1 0x20 ADD ADD DUP2 DUP2 MSTORE POP POP PUSH1 0x4 PUSH1 0x0 SWAP1 SLOAD SWAP1 PUSH2 0x100 EXP SWAP1 DIV PUSH20 0xFFFFFFFFFFFFFFFFFFFFFFFFFFFFFFFFFFFFFFFF AND PUSH20 0xFFFFFFFFFFFFFFFFFFFFFFFFFFFFFFFFFFFFFFFF AND PUSH4 0x2D1F0E30 DUP4 DUP4 DUP2 MLOAD DUP2 LT PUSH3 0x39E JUMPI PUSH3 0x39D PUSH3 0xD09 JUMP JUMPDEST JUMPDEST PUSH1 0x20 MUL PUSH1 0x20 ADD ADD MLOAD PUSH1 0x3 DUP5 DUP2 SLOAD DUP2 LT PUSH3 0x3BD JUMPI PUSH3 0x3BC PUSH3 0xD09 JUMP JUMPDEST JUMPDEST SWAP1 PUSH1 0x0 MSTORE PUSH1 0x20 PUSH1 0x0 KECCAK256 ADD PUSH1 0x0 SWAP1 SLOAD SWAP1 PUSH2 0x100 EXP SWAP1 DIV PUSH20 0xFFFFFFFFFFFFFFFFFFFFFFFFFFFFFFFFFFFFFFFF AND PUSH20 0xFFFFFFFFFFFFFFFFFFFFFFFFFFFFFFFFFFFFFFFF AND PUSH4 0x8DA5CB5B PUSH1 0x40 MLOAD DUP2 PUSH4 0xFFFFFFFF AND PUSH1 0xE0 SHL DUP2 MSTORE PUSH1 0x4 ADD PUSH1 0x20 PUSH1 0x40 MLOAD DUP1 DUP4 SUB DUP2 DUP7 DUP1 EXTCODESIZE ISZERO DUP1 ISZERO PUSH3 0x42E JUMPI PUSH1 0x0 DUP1 REVERT JUMPDEST POP GAS STATICCALL ISZERO DUP1 ISZERO PUSH3 0x443 JUMPI RETURNDATASIZE PUSH1 0x0 DUP1 RETURNDATACOPY RETURNDATASIZE PUSH1 0x0 REVERT JUMPDEST POP POP POP POP PUSH1 0x40 MLOAD RETURNDATASIZE PUSH1 0x1F NOT PUSH1 0x1F DUP3 ADD AND DUP3 ADD DUP1 PUSH1 0x40 MSTORE POP DUP2 ADD SWAP1 PUSH3 0x469 SWAP2 SWAP1 PUSH3 0x863 JUMP JUMPDEST PUSH1 0x40 MLOAD DUP4 PUSH4 0xFFFFFFFF AND PUSH1 0xE0 SHL DUP2 MSTORE PUSH1 0x4 ADD PUSH3 0x488 SWAP3 SWAP2 SWAP1 PUSH3 0xAE1 JUMP JUMPDEST PUSH1 0x0 PUSH1 0x40 MLOAD DUP1 DUP4 SUB DUP2 PUSH1 0x0 DUP8 DUP1 EXTCODESIZE ISZERO DUP1 ISZERO PUSH3 0x4A3 JUMPI PUSH1 0x0 DUP1 REVERT JUMPDEST POP GAS CALL ISZERO DUP1 ISZERO PUSH3 0x4B8 JUMPI RETURNDATASIZE PUSH1 0x0 DUP1 RETURNDATACOPY RETURNDATASIZE PUSH1 0x0 REVERT JUMPDEST POP POP POP POP DUP1 DUP1 PUSH3 0x4C9 SWAP1 PUSH3 0xC2E JUMP JUMPDEST SWAP2 POP POP PUSH3 0x248 JUMP JUMPDEST POP POP POP POP JUMP JUMPDEST PUSH1 0x2 PUSH1 0x0 SWAP1 SLOAD SWAP1 PUSH2 0x100 EXP SWAP1 DIV PUSH20 0xFFFFFFFFFFFFFFFFFFFFFFFFFFFFFFFFFFFFFFFF AND PUSH20 0xFFFFFFFFFFFFFFFFFFFFFFFFFFFFFFFFFFFFFFFF AND CALLER PUSH20 0xFFFFFFFFFFFFFFFFFFFFFFFFFFFFFFFFFFFFFFFF AND EQ PUSH3 0x56B JUMPI PUSH1 0x40 MLOAD PUSH32 0x8C379A000000000000000000000000000000000000000000000000000000000 DUP2 MSTORE PUSH1 0x4 ADD PUSH3 0x562 SWAP1 PUSH3 0xA7B JUMP JUMPDEST PUSH1 0x40 MLOAD DUP1 SWAP2 SUB SWAP1 REVERT JUMPDEST PUSH1 0x1 DUP2 EQ ISZERO PUSH3 0x5C2 JUMPI PUSH1 0x0 SLOAD TIMESTAMP GT PUSH3 0x5BC JUMPI PUSH1 0x40 MLOAD PUSH32 0x8C379A000000000000000000000000000000000000000000000000000000000 DUP2 MSTORE PUSH1 0x4 ADD PUSH3 0x5B3 SWAP1 PUSH3 0xABF JUMP JUMPDEST PUSH1 0x40 MLOAD DUP1 SWAP2 SUB SWAP1 REVERT JUMPDEST PUSH3 0x615 JUMP JUMPDEST PUSH1 0x2 DUP2 EQ ISZERO PUSH3 0x614 JUMPI PUSH1 0x1 SLOAD TIMESTAMP GT PUSH3 0x613 JUMPI PUSH1 0x40 MLOAD PUSH32 0x8C379A000000000000000000000000000000000000000000000000000000000 DUP2 MSTORE PUSH1 0x4 ADD PUSH3 0x60A SWAP1 PUSH3 0xA59 JUMP JUMPDEST PUSH1 0x40 MLOAD DUP1 SWAP2 SUB SWAP1 REVERT JUMPDEST JUMPDEST JUMPDEST POP JUMP JUMPDEST PUSH1 0x4 PUSH1 0x0 SWAP1 SLOAD SWAP1 PUSH2 0x100 EXP SWAP1 DIV PUSH20 0xFFFFFFFFFFFFFFFFFFFFFFFFFFFFFFFFFFFFFFFF AND DUP2 JUMP JUMPDEST PUSH1 0x2 PUSH1 0x0 SWAP1 SLOAD SWAP1 PUSH2 0x100 EXP SWAP1 DIV PUSH20 0xFFFFFFFFFFFFFFFFFFFFFFFFFFFFFFFFFFFFFFFF AND PUSH20 0xFFFFFFFFFFFFFFFFFFFFFFFFFFFFFFFFFFFFFFFF AND CALLER PUSH20 0xFFFFFFFFFFFFFFFFFFFFFFFFFFFFFFFFFFFFFFFF AND EQ PUSH3 0x6D1 JUMPI PUSH1 0x40 MLOAD PUSH32 0x8C379A000000000000000000000000000000000000000000000000000000000 DUP2 MSTORE PUSH1 0x4 ADD PUSH3 0x6C8 SWAP1 PUSH3 0xA7B JUMP JUMPDEST PUSH1 0x40 MLOAD DUP1 SWAP2 SUB SWAP1 REVERT JUMPDEST PUSH1 0x0 DUP1 PUSH1 0x2 DUP2 GT ISZERO PUSH3 0x6E9 JUMPI PUSH3 0x6E8 PUSH3 0xCDA JUMP JUMPDEST JUMPDEST PUSH1 0x2 PUSH1 0x14 SWAP1 SLOAD SWAP1 PUSH2 0x100 EXP SWAP1 DIV PUSH1 0xFF AND PUSH1 0x2 DUP2 GT ISZERO PUSH3 0x70E JUMPI PUSH3 0x70D PUSH3 0xCDA JUMP JUMPDEST JUMPDEST EQ PUSH3 0x751 JUMPI PUSH1 0x40 MLOAD PUSH32 0x8C379A000000000000000000000000000000000000000000000000000000000 DUP2 MSTORE PUSH1 0x4 ADD PUSH3 0x748 SWAP1 PUSH3 0xA9D JUMP JUMPDEST PUSH1 0x40 MLOAD DUP1 SWAP2 SUB SWAP1 REVERT JUMPDEST PUSH1 0x0 DUP4 DUP4 PUSH1 0x40 MLOAD PUSH3 0x763 SWAP1 PUSH3 0x7F9 JUMP JUMPDEST PUSH3 0x770 SWAP3 SWAP2 SWAP1 PUSH3 0xA0F JUMP JUMPDEST PUSH1 0x40 MLOAD DUP1 SWAP2 SUB SWAP1 PUSH1 0x0 CREATE DUP1 ISZERO DUP1 ISZERO PUSH3 0x78D JUMPI RETURNDATASIZE PUSH1 0x0 DUP1 RETURNDATACOPY RETURNDATASIZE PUSH1 0x0 REVERT JUMPDEST POP SWAP1 POP PUSH1 0x3 DUP2 SWAP1 DUP1 PUSH1 0x1 DUP2 SLOAD ADD DUP1 DUP3 SSTORE DUP1 SWAP2 POP POP PUSH1 0x1 SWAP1 SUB SWAP1 PUSH1 0x0 MSTORE PUSH1 0x20 PUSH1 0x0 KECCAK256 ADD PUSH1 0x0 SWAP1 SWAP2 SWAP1 SWAP2 SWAP1 SWAP2 PUSH2 0x100 EXP DUP2 SLOAD DUP2 PUSH20 0xFFFFFFFFFFFFFFFFFFFFFFFFFFFFFFFFFFFFFFFF MUL NOT AND SWAP1 DUP4 PUSH20 0xFFFFFFFFFFFFFFFFFFFFFFFFFFFFFFFFFFFFFFFF AND MUL OR SWAP1 SSTORE POP POP POP POP POP JUMP JUMPDEST PUSH2 0xE62 DUP1 PUSH3 0xE62 DUP4 CODECOPY ADD SWAP1 JUMP JUMPDEST PUSH1 0x0 DUP2 CALLDATALOAD SWAP1 POP PUSH3 0x818 DUP2 PUSH3 0xE2D JUMP JUMPDEST SWAP3 SWAP2 POP POP JUMP JUMPDEST PUSH1 0x0 DUP2 MLOAD SWAP1 POP PUSH3 0x82F DUP2 PUSH3 0xE2D JUMP JUMPDEST SWAP3 SWAP2 POP POP JUMP JUMPDEST PUSH1 0x0 DUP2 CALLDATALOAD SWAP1 POP PUSH3 0x846 DUP2 PUSH3 0xE47 JUMP JUMPDEST SWAP3 SWAP2 POP POP JUMP JUMPDEST PUSH1 0x0 DUP2 MLOAD SWAP1 POP PUSH3 0x85D DUP2 PUSH3 0xE47 JUMP JUMPDEST SWAP3 SWAP2 POP POP JUMP JUMPDEST PUSH1 0x0 PUSH1 0x20 DUP3 DUP5 SUB SLT ISZERO PUSH3 0x87C JUMPI PUSH3 0x87B PUSH3 0xD38 JUMP JUMPDEST JUMPDEST PUSH1 0x0 PUSH3 0x88C DUP5 DUP3 DUP6 ADD PUSH3 0x81E JUMP JUMPDEST SWAP2 POP POP SWAP3 SWAP2 POP POP JUMP JUMPDEST PUSH1 0x0 DUP1 PUSH1 0x40 DUP4 DUP6 SUB SLT ISZERO PUSH3 0x8AF JUMPI PUSH3 0x8AE PUSH3 0xD38 JUMP JUMPDEST JUMPDEST PUSH1 0x0 PUSH3 0x8BF DUP6 DUP3 DUP7 ADD PUSH3 0x807 JUMP JUMPDEST SWAP3 POP POP PUSH1 0x20 PUSH3 0x8D2 DUP6 DUP3 DUP7 ADD PUSH3 0x835 JUMP JUMPDEST SWAP2 POP POP SWAP3 POP SWAP3 SWAP1 POP JUMP JUMPDEST PUSH1 0x0 PUSH1 0x20 DUP3 DUP5 SUB SLT ISZERO PUSH3 0x8F5 JUMPI PUSH3 0x8F4 PUSH3 0xD38 JUMP JUMPDEST JUMPDEST PUSH1 0x0 PUSH3 0x905 DUP5 DUP3 DUP6 ADD PUSH3 0x835 JUMP JUMPDEST SWAP2 POP POP SWAP3 SWAP2 POP POP JUMP JUMPDEST PUSH1 0x0 PUSH1 0x20 DUP3 DUP5 SUB SLT ISZERO PUSH3 0x927 JUMPI PUSH3 0x926 PUSH3 0xD38 JUMP JUMPDEST JUMPDEST PUSH1 0x0 PUSH3 0x937 DUP5 DUP3 DUP6 ADD PUSH3 0x84C JUMP JUMPDEST SWAP2 POP POP SWAP3 SWAP2 POP POP JUMP JUMPDEST PUSH3 0x94B DUP2 PUSH3 0xBB4 JUMP JUMPDEST DUP3 MSTORE POP POP JUMP JUMPDEST PUSH3 0x95C DUP2 PUSH3 0xBF2 JUMP JUMPDEST DUP3 MSTORE POP POP JUMP JUMPDEST PUSH1 0x0 PUSH3 0x971 PUSH1 0x21 DUP4 PUSH3 0xB0E JUMP JUMPDEST SWAP2 POP PUSH3 0x97E DUP3 PUSH3 0xD3D JUMP JUMPDEST PUSH1 0x40 DUP3 ADD SWAP1 POP SWAP2 SWAP1 POP JUMP JUMPDEST PUSH1 0x0 PUSH3 0x998 PUSH1 0x24 DUP4 PUSH3 0xB0E JUMP JUMPDEST SWAP2 POP PUSH3 0x9A5 DUP3 PUSH3 0xD8C JUMP JUMPDEST PUSH1 0x40 DUP3 ADD SWAP1 POP SWAP2 SWAP1 POP JUMP JUMPDEST PUSH1 0x0 PUSH3 0x9BF PUSH1 0x1E DUP4 PUSH3 0xB0E JUMP JUMPDEST SWAP2 POP PUSH3 0x9CC DUP3 PUSH3 0xDDB JUMP JUMPDEST PUSH1 0x20 DUP3 ADD SWAP1 POP SWAP2 SWAP1 POP JUMP JUMPDEST PUSH1 0x0 PUSH3 0x9E6 PUSH1 0x1F DUP4 PUSH3 0xB0E JUMP JUMPDEST SWAP2 POP PUSH3 0x9F3 DUP3 PUSH3 0xE04 JUMP JUMPDEST PUSH1 0x20 DUP3 ADD SWAP1 POP SWAP2 SWAP1 POP JUMP JUMPDEST PUSH3 0xA09 DUP2 PUSH3 0xBE8 JUMP JUMPDEST DUP3 MSTORE POP POP JUMP JUMPDEST PUSH1 0x0 PUSH1 0x40 DUP3 ADD SWAP1 POP PUSH3 0xA26 PUSH1 0x0 DUP4 ADD DUP6 PUSH3 0x940 JUMP JUMPDEST PUSH3 0xA35 PUSH1 0x20 DUP4 ADD DUP5 PUSH3 0x9FE JUMP JUMPDEST SWAP4 SWAP3 POP POP POP JUMP JUMPDEST PUSH1 0x0 PUSH1 0x20 DUP3 ADD SWAP1 POP PUSH3 0xA53 PUSH1 0x0 DUP4 ADD DUP5 PUSH3 0x951 JUMP JUMPDEST SWAP3 SWAP2 POP POP JUMP JUMPDEST PUSH1 0x0 PUSH1 0x20 DUP3 ADD SWAP1 POP DUP2 DUP2 SUB PUSH1 0x0 DUP4 ADD MSTORE PUSH3 0xA74 DUP2 PUSH3 0x962 JUMP JUMPDEST SWAP1 POP SWAP2 SWAP1 POP JUMP JUMPDEST PUSH1 0x0 PUSH1 0x20 DUP3 ADD SWAP1 POP DUP2 DUP2 SUB PUSH1 0x0 DUP4 ADD MSTORE PUSH3 0xA96 DUP2 PUSH3 0x989 JUMP JUMPDEST SWAP1 POP SWAP2 SWAP1 POP JUMP JUMPDEST PUSH1 0x0 PUSH1 0x20 DUP3 ADD SWAP1 POP DUP2 DUP2 SUB PUSH1 0x0 DUP4 ADD MSTORE PUSH3 0xAB8 DUP2 PUSH3 0x9B0 JUMP JUMPDEST SWAP1 POP SWAP2 SWAP1 POP JUMP JUMPDEST PUSH1 0x0 PUSH1 0x20 DUP3 ADD SWAP1 POP DUP2 DUP2 SUB PUSH1 0x0 DUP4 ADD MSTORE PUSH3 0xADA DUP2 PUSH3 0x9D7 JUMP JUMPDEST SWAP1 POP SWAP2 SWAP1 POP JUMP JUMPDEST PUSH1 0x0 PUSH1 0x40 DUP3 ADD SWAP1 POP PUSH3 0xAF8 PUSH1 0x0 DUP4 ADD DUP6 PUSH3 0x9FE JUMP JUMPDEST PUSH3 0xB07 PUSH1 0x20 DUP4 ADD DUP5 PUSH3 0x940 JUMP JUMPDEST SWAP4 SWAP3 POP POP POP JUMP JUMPDEST PUSH1 0x0 DUP3 DUP3 MSTORE PUSH1 0x20 DUP3 ADD SWAP1 POP SWAP3 SWAP2 POP POP JUMP JUMPDEST PUSH1 0x0 PUSH3 0xB2C DUP3 PUSH3 0xBE8 JUMP JUMPDEST SWAP2 POP PUSH3 0xB39 DUP4 PUSH3 0xBE8 JUMP JUMPDEST SWAP3 POP DUP3 PUSH32 0xFFFFFFFFFFFFFFFFFFFFFFFFFFFFFFFFFFFFFFFFFFFFFFFFFFFFFFFFFFFFFFFF SUB DUP3 GT ISZERO PUSH3 0xB71 JUMPI PUSH3 0xB70 PUSH3 0xC7C JUMP JUMPDEST JUMPDEST DUP3 DUP3 ADD SWAP1 POP SWAP3 SWAP2 POP POP JUMP JUMPDEST PUSH1 0x0 PUSH3 0xB89 DUP3 PUSH3 0xBE8 JUMP JUMPDEST SWAP2 POP PUSH3 0xB96 DUP4 PUSH3 0xBE8 JUMP JUMPDEST SWAP3 POP DUP3 PUSH3 0xBA9 JUMPI PUSH3 0xBA8 PUSH3 0xCAB JUMP JUMPDEST JUMPDEST DUP3 DUP3 DIV SWAP1 POP SWAP3 SWAP2 POP POP JUMP JUMPDEST PUSH1 0x0 PUSH3 0xBC1 DUP3 PUSH3 0xBC8 JUMP JUMPDEST SWAP1 POP SWAP2 SWAP1 POP JUMP JUMPDEST PUSH1 0x0 PUSH20 0xFFFFFFFFFFFFFFFFFFFFFFFFFFFFFFFFFFFFFFFF DUP3 AND SWAP1 POP SWAP2 SWAP1 POP JUMP JUMPDEST PUSH1 0x0 DUP2 SWAP1 POP SWAP2 SWAP1 POP JUMP JUMPDEST PUSH1 0x0 PUSH3 0xBFF DUP3 PUSH3 0xC06 JUMP JUMPDEST SWAP1 POP SWAP2 SWAP1 POP JUMP JUMPDEST PUSH1 0x0 PUSH3 0xC13 DUP3 PUSH3 0xC1A JUMP JUMPDEST SWAP1 POP SWAP2 SWAP1 POP JUMP JUMPDEST PUSH1 0x0 PUSH3 0xC27 DUP3 PUSH3 0xBC8 JUMP JUMPDEST SWAP1 POP SWAP2 SWAP1 POP JUMP JUMPDEST PUSH1 0x0 PUSH3 0xC3B DUP3 PUSH3 0xBE8 JUMP JUMPDEST SWAP2 POP PUSH32 0xFFFFFFFFFFFFFFFFFFFFFFFFFFFFFFFFFFFFFFFFFFFFFFFFFFFFFFFFFFFFFFFF DUP3 EQ ISZERO PUSH3 0xC71 JUMPI PUSH3 0xC70 PUSH3 0xC7C JUMP JUMPDEST JUMPDEST PUSH1 0x1 DUP3 ADD SWAP1 POP SWAP2 SWAP1 POP JUMP JUMPDEST PUSH32 0x4E487B7100000000000000000000000000000000000000000000000000000000 PUSH1 0x0 MSTORE PUSH1 0x11 PUSH1 0x4 MSTORE PUSH1 0x24 PUSH1 0x0 REVERT JUMPDEST PUSH32 0x4E487B7100000000000000000000000000000000000000000000000000000000 PUSH1 0x0 MSTORE PUSH1 0x12 PUSH1 0x4 MSTORE PUSH1 0x24 PUSH1 0x0 REVERT JUMPDEST PUSH32 0x4E487B7100000000000000000000000000000000000000000000000000000000 PUSH1 0x0 MSTORE PUSH1 0x21 PUSH1 0x4 MSTORE PUSH1 0x24 PUSH1 0x0 REVERT JUMPDEST PUSH32 0x4E487B7100000000000000000000000000000000000000000000000000000000 PUSH1 0x0 MSTORE PUSH1 0x32 PUSH1 0x4 MSTORE PUSH1 0x24 PUSH1 0x0 REVERT JUMPDEST PUSH1 0x0 DUP1 REVERT JUMPDEST PUSH32 0x636F6D706C657465642070686173652063616E6E6F7420626520737461727465 PUSH1 0x0 DUP3 ADD MSTORE PUSH32 0x6400000000000000000000000000000000000000000000000000000000000000 PUSH1 0x20 DUP3 ADD MSTORE POP JUMP JUMPDEST PUSH32 0x43616E6E6F7420616C6C6F7720616363657373206F74686572207468616E206F PUSH1 0x0 DUP3 ADD MSTORE PUSH32 0x776E657200000000000000000000000000000000000000000000000000000000 PUSH1 0x20 DUP3 ADD MSTORE POP JUMP JUMPDEST PUSH32 0x436F6E7472616374206E6F7420696E2072657175697265642073746174650000 PUSH1 0x0 DUP3 ADD MSTORE POP JUMP JUMPDEST PUSH32 0x6F6E676F696E672070686173652063616E6E6F74206265207374617274656400 PUSH1 0x0 DUP3 ADD MSTORE POP JUMP JUMPDEST PUSH3 0xE38 DUP2 PUSH3 0xBB4 JUMP JUMPDEST DUP2 EQ PUSH3 0xE44 JUMPI PUSH1 0x0 DUP1 REVERT JUMPDEST POP JUMP JUMPDEST PUSH3 0xE52 DUP2 PUSH3 0xBE8 JUMP JUMPDEST DUP2 EQ PUSH3 0xE5E JUMPI PUSH1 0x0 DUP1 REVERT JUMPDEST POP JUMP INVALID PUSH1 0x80 PUSH1 0x40 MSTORE CALLVALUE DUP1 ISZERO PUSH3 0x11 JUMPI PUSH1 0x0 DUP1 REVERT JUMPDEST POP PUSH1 0x40 MLOAD PUSH3 0xE62 CODESIZE SUB DUP1 PUSH3 0xE62 DUP4 CODECOPY DUP2 DUP2 ADD PUSH1 0x40 MSTORE DUP2 ADD SWAP1 PUSH3 0x37 SWAP2 SWAP1 PUSH3 0xE2 JUMP JUMPDEST DUP1 PUSH1 0x1 DUP2 SWAP1 SSTORE POP DUP2 PUSH1 0x0 DUP1 PUSH2 0x100 EXP DUP2 SLOAD DUP2 PUSH20 0xFFFFFFFFFFFFFFFFFFFFFFFFFFFFFFFFFFFFFFFF MUL NOT AND SWAP1 DUP4 PUSH20 0xFFFFFFFFFFFFFFFFFFFFFFFFFFFFFFFFFFFFFFFF AND MUL OR SWAP1 SSTORE POP PUSH1 0x0 PUSH1 0x2 PUSH1 0x0 PUSH2 0x100 EXP DUP2 SLOAD DUP2 PUSH1 0xFF MUL NOT AND SWAP1 DUP4 PUSH1 0x2 DUP2 GT ISZERO PUSH3 0xA7 JUMPI PUSH3 0xA6 PUSH3 0x167 JUMP JUMPDEST JUMPDEST MUL OR SWAP1 SSTORE POP POP POP PUSH3 0x1CF JUMP JUMPDEST PUSH1 0x0 DUP2 MLOAD SWAP1 POP PUSH3 0xC5 DUP2 PUSH3 0x19B JUMP JUMPDEST SWAP3 SWAP2 POP POP JUMP JUMPDEST PUSH1 0x0 DUP2 MLOAD SWAP1 POP PUSH3 0xDC DUP2 PUSH3 0x1B5 JUMP JUMPDEST SWAP3 SWAP2 POP POP JUMP JUMPDEST PUSH1 0x0 DUP1 PUSH1 0x40 DUP4 DUP6 SUB SLT ISZERO PUSH3 0xFC JUMPI PUSH3 0xFB PUSH3 0x196 JUMP JUMPDEST JUMPDEST PUSH1 0x0 PUSH3 0x10C DUP6 DUP3 DUP7 ADD PUSH3 0xB4 JUMP JUMPDEST SWAP3 POP POP PUSH1 0x20 PUSH3 0x11F DUP6 DUP3 DUP7 ADD PUSH3 0xCB JUMP JUMPDEST SWAP2 POP POP SWAP3 POP SWAP3 SWAP1 POP JUMP JUMPDEST PUSH1 0x0 PUSH3 0x136 DUP3 PUSH3 0x13D JUMP JUMPDEST SWAP1 POP SWAP2 SWAP1 POP JUMP JUMPDEST PUSH1 0x0 PUSH20 0xFFFFFFFFFFFFFFFFFFFFFFFFFFFFFFFFFFFFFFFF DUP3 AND SWAP1 POP SWAP2 SWAP1 POP JUMP JUMPDEST PUSH1 0x0 DUP2 SWAP1 POP SWAP2 SWAP1 POP JUMP JUMPDEST PUSH32 0x4E487B7100000000000000000000000000000000000000000000000000000000 PUSH1 0x0 MSTORE PUSH1 0x21 PUSH1 0x4 MSTORE PUSH1 0x24 PUSH1 0x0 REVERT JUMPDEST PUSH1 0x0 DUP1 REVERT JUMPDEST PUSH3 0x1A6 DUP2 PUSH3 0x129 JUMP JUMPDEST DUP2 EQ PUSH3 0x1B2 JUMPI PUSH1 0x0 DUP1 REVERT JUMPDEST POP JUMP JUMPDEST PUSH3 0x1C0 DUP2 PUSH3 0x15D JUMP JUMPDEST DUP2 EQ PUSH3 0x1CC JUMPI PUSH1 0x0 DUP1 REVERT JUMPDEST POP JUMP JUMPDEST PUSH2 0xC83 DUP1 PUSH3 0x1DF PUSH1 0x0 CODECOPY PUSH1 0x0 RETURN INVALID PUSH1 0x80 PUSH1 0x40 MSTORE PUSH1 0x4 CALLDATASIZE LT PUSH2 0x55 JUMPI PUSH1 0x0 CALLDATALOAD PUSH1 0xE0 SHR DUP1 PUSH4 0x173B8EDD EQ PUSH2 0x5A JUMPI DUP1 PUSH4 0x6FC44344 EQ PUSH2 0x85 JUMPI DUP1 PUSH4 0x8DA5CB5B EQ PUSH2 0xB0 JUMPI DUP1 PUSH4 0xB00741CB EQ PUSH2 0xDB JUMPI DUP1 PUSH4 0xD7BB99BA EQ PUSH2 0x104 JUMPI DUP1 PUSH4 0xE2AE93FB EQ PUSH2 0x10E JUMPI JUMPDEST PUSH1 0x0 DUP1 REVERT JUMPDEST CALLVALUE DUP1 ISZERO PUSH2 0x66 JUMPI PUSH1 0x0 DUP1 REVERT JUMPDEST POP PUSH2 0x6F PUSH2 0x14B JUMP JUMPDEST PUSH1 0x40 MLOAD PUSH2 0x7C SWAP2 SWAP1 PUSH2 0x865 JUMP JUMPDEST PUSH1 0x40 MLOAD DUP1 SWAP2 SUB SWAP1 RETURN JUMPDEST CALLVALUE DUP1 ISZERO PUSH2 0x91 JUMPI PUSH1 0x0 DUP1 REVERT JUMPDEST POP PUSH2 0x9A PUSH2 0x224 JUMP JUMPDEST PUSH1 0x40 MLOAD PUSH2 0xA7 SWAP2 SWAP1 PUSH2 0x865 JUMP JUMPDEST PUSH1 0x40 MLOAD DUP1 SWAP2 SUB SWAP1 RETURN JUMPDEST CALLVALUE DUP1 ISZERO PUSH2 0xBC JUMPI PUSH1 0x0 DUP1 REVERT JUMPDEST POP PUSH2 0xC5 PUSH2 0x22A JUMP JUMPDEST PUSH1 0x40 MLOAD PUSH2 0xD2 SWAP2 SWAP1 PUSH2 0x7CA JUMP JUMPDEST PUSH1 0x40 MLOAD DUP1 SWAP2 SUB SWAP1 RETURN JUMPDEST CALLVALUE DUP1 ISZERO PUSH2 0xE7 JUMPI PUSH1 0x0 DUP1 REVERT JUMPDEST POP PUSH2 0x102 PUSH1 0x4 DUP1 CALLDATASIZE SUB DUP2 ADD SWAP1 PUSH2 0xFD SWAP2 SWAP1 PUSH2 0x6F3 JUMP JUMPDEST PUSH2 0x24E JUMP JUMPDEST STOP JUMPDEST PUSH2 0x10C PUSH2 0x386 JUMP JUMPDEST STOP JUMPDEST CALLVALUE DUP1 ISZERO PUSH2 0x11A JUMPI PUSH1 0x0 DUP1 REVERT JUMPDEST POP PUSH2 0x135 PUSH1 0x4 DUP1 CALLDATASIZE SUB DUP2 ADD SWAP1 PUSH2 0x130 SWAP2 SWAP1 PUSH2 0x6C6 JUMP JUMPDEST PUSH2 0x5A2 JUMP JUMPDEST PUSH1 0x40 MLOAD PUSH2 0x142 SWAP2 SWAP1 PUSH2 0x865 JUMP JUMPDEST PUSH1 0x40 MLOAD DUP1 SWAP2 SUB SWAP1 RETURN JUMPDEST PUSH1 0x0 DUP1 PUSH1 0x0 SWAP1 POP JUMPDEST PUSH1 0x6 DUP1 SLOAD SWAP1 POP DUP2 LT ISZERO PUSH2 0x211 JUMPI PUSH2 0x1E6 PUSH1 0x4 PUSH1 0x0 PUSH1 0x6 DUP5 DUP2 SLOAD DUP2 LT PUSH2 0x17B JUMPI PUSH2 0x17A PUSH2 0xAFB JUMP JUMPDEST JUMPDEST SWAP1 PUSH1 0x0 MSTORE PUSH1 0x20 PUSH1 0x0 KECCAK256 ADD PUSH1 0x0 SWAP1 SLOAD SWAP1 PUSH2 0x100 EXP SWAP1 DIV PUSH20 0xFFFFFFFFFFFFFFFFFFFFFFFFFFFFFFFFFFFFFFFF AND PUSH20 0xFFFFFFFFFFFFFFFFFFFFFFFFFFFFFFFFFFFFFFFF AND PUSH20 0xFFFFFFFFFFFFFFFFFFFFFFFFFFFFFFFFFFFFFFFF AND DUP2 MSTORE PUSH1 0x20 ADD SWAP1 DUP2 MSTORE PUSH1 0x20 ADD PUSH1 0x0 KECCAK256 SLOAD PUSH2 0x5BA JUMP JUMPDEST PUSH1 0x5 PUSH1 0x0 DUP3 DUP3 SLOAD PUSH2 0x1F7 SWAP2 SWAP1 PUSH2 0x891 JUMP JUMPDEST SWAP3 POP POP DUP2 SWAP1 SSTORE POP DUP1 DUP1 PUSH2 0x209 SWAP1 PUSH2 0x9F4 JUMP JUMPDEST SWAP2 POP POP PUSH2 0x153 JUMP JUMPDEST POP PUSH2 0x21F PUSH1 0x5 SLOAD PUSH1 0x2 PUSH2 0x60D JUMP JUMPDEST SWAP1 POP SWAP1 JUMP JUMPDEST PUSH1 0x3 SLOAD DUP2 JUMP JUMPDEST PUSH1 0x0 DUP1 SLOAD SWAP1 PUSH2 0x100 EXP SWAP1 DIV PUSH20 0xFFFFFFFFFFFFFFFFFFFFFFFFFFFFFFFFFFFFFFFF AND DUP2 JUMP JUMPDEST PUSH1 0x0 DUP1 SLOAD SWAP1 PUSH2 0x100 EXP SWAP1 DIV PUSH20 0xFFFFFFFFFFFFFFFFFFFFFFFFFFFFFFFFFFFFFFFF AND PUSH20 0xFFFFFFFFFFFFFFFFFFFFFFFFFFFFFFFFFFFFFFFF AND CALLER PUSH20 0xFFFFFFFFFFFFFFFFFFFFFFFFFFFFFFFFFFFFFFFF AND EQ PUSH2 0x2DC JUMPI PUSH1 0x40 MLOAD PUSH32 0x8C379A000000000000000000000000000000000000000000000000000000000 DUP2 MSTORE PUSH1 0x4 ADD PUSH2 0x2D3 SWAP1 PUSH2 0x805 JUMP JUMPDEST PUSH1 0x40 MLOAD DUP1 SWAP2 SUB SWAP1 REVERT JUMPDEST PUSH1 0x1 DUP2 EQ ISZERO PUSH2 0x331 JUMPI PUSH5 0x2DFDACA2D TIMESTAMP GT PUSH2 0x32C JUMPI PUSH1 0x40 MLOAD PUSH32 0x8C379A000000000000000000000000000000000000000000000000000000000 DUP2 MSTORE PUSH1 0x4 ADD PUSH2 0x323 SWAP1 PUSH2 0x845 JUMP JUMPDEST PUSH1 0x40 MLOAD DUP1 SWAP2 SUB SWAP1 REVERT JUMPDEST PUSH2 0x383 JUMP JUMPDEST PUSH1 0x2 DUP2 EQ ISZERO PUSH2 0x382 JUMPI PUSH5 0x2DFDC1BAD TIMESTAMP GT PUSH2 0x381 JUMPI PUSH1 0x40 MLOAD PUSH32 0x8C379A000000000000000000000000000000000000000000000000000000000 DUP2 MSTORE PUSH1 0x4 ADD PUSH2 0x378 SWAP1 PUSH2 0x7E5 JUMP JUMPDEST PUSH1 0x40 MLOAD DUP1 SWAP2 SUB SWAP1 REVERT JUMPDEST JUMPDEST JUMPDEST POP JUMP JUMPDEST PUSH1 0x1 DUP1 PUSH1 0x2 DUP2 GT ISZERO PUSH2 0x39B JUMPI PUSH2 0x39A PUSH2 0xACC JUMP JUMPDEST JUMPDEST PUSH1 0x2 PUSH1 0x0 SWAP1 SLOAD SWAP1 PUSH2 0x100 EXP SWAP1 DIV PUSH1 0xFF AND PUSH1 0x2 DUP2 GT ISZERO PUSH2 0x3BD JUMPI PUSH2 0x3BC PUSH2 0xACC JUMP JUMPDEST JUMPDEST EQ PUSH2 0x3FD JUMPI PUSH1 0x40 MLOAD PUSH32 0x8C379A000000000000000000000000000000000000000000000000000000000 DUP2 MSTORE PUSH1 0x4 ADD PUSH2 0x3F4 SWAP1 PUSH2 0x825 JUMP JUMPDEST PUSH1 0x40 MLOAD DUP1 SWAP2 SUB SWAP1 REVERT JUMPDEST PUSH1 0x0 CALLVALUE SWAP1 POP PUSH1 0x0 PUSH1 0x4 PUSH1 0x0 CALLER PUSH20 0xFFFFFFFFFFFFFFFFFFFFFFFFFFFFFFFFFFFFFFFF AND PUSH20 0xFFFFFFFFFFFFFFFFFFFFFFFFFFFFFFFFFFFFFFFF AND DUP2 MSTORE PUSH1 0x20 ADD SWAP1 DUP2 MSTORE PUSH1 0x20 ADD PUSH1 0x0 KECCAK256 SLOAD EQ ISZERO PUSH2 0x4F6 JUMPI PUSH1 0x6 CALLER SWAP1 DUP1 PUSH1 0x1 DUP2 SLOAD ADD DUP1 DUP3 SSTORE DUP1 SWAP2 POP POP PUSH1 0x1 SWAP1 SUB SWAP1 PUSH1 0x0 MSTORE PUSH1 0x20 PUSH1 0x0 KECCAK256 ADD PUSH1 0x0 SWAP1 SWAP2 SWAP1 SWAP2 SWAP1 SWAP2 PUSH2 0x100 EXP DUP2 SLOAD DUP2 PUSH20 0xFFFFFFFFFFFFFFFFFFFFFFFFFFFFFFFFFFFFFFFF MUL NOT AND SWAP1 DUP4 PUSH20 0xFFFFFFFFFFFFFFFFFFFFFFFFFFFFFFFFFFFFFFFF AND MUL OR SWAP1 SSTORE POP DUP1 PUSH1 0x4 PUSH1 0x0 CALLER PUSH20 0xFFFFFFFFFFFFFFFFFFFFFFFFFFFFFFFFFFFFFFFF AND PUSH20 0xFFFFFFFFFFFFFFFFFFFFFFFFFFFFFFFFFFFFFFFF AND DUP2 MSTORE PUSH1 0x20 ADD SWAP1 DUP2 MSTORE PUSH1 0x20 ADD PUSH1 0x0 KECCAK256 DUP2 SWAP1 SSTORE POP PUSH2 0x585 JUMP JUMPDEST DUP1 PUSH1 0x4 PUSH1 0x0 CALLER PUSH20 0xFFFFFFFFFFFFFFFFFFFFFFFFFFFFFFFFFFFFFFFF AND PUSH20 0xFFFFFFFFFFFFFFFFFFFFFFFFFFFFFFFFFFFFFFFF AND DUP2 MSTORE PUSH1 0x20 ADD SWAP1 DUP2 MSTORE PUSH1 0x20 ADD PUSH1 0x0 KECCAK256 SLOAD PUSH2 0x541 SWAP2 SWAP1 PUSH2 0x891 JUMP JUMPDEST PUSH1 0x4 PUSH1 0x0 CALLER PUSH20 0xFFFFFFFFFFFFFFFFFFFFFFFFFFFFFFFFFFFFFFFF AND PUSH20 0xFFFFFFFFFFFFFFFFFFFFFFFFFFFFFFFFFFFFFFFF AND DUP2 MSTORE PUSH1 0x20 ADD SWAP1 DUP2 MSTORE PUSH1 0x20 ADD PUSH1 0x0 KECCAK256 DUP2 SWAP1 SSTORE POP JUMPDEST DUP1 PUSH1 0x3 PUSH1 0x0 DUP3 DUP3 SLOAD PUSH2 0x597 SWAP2 SWAP1 PUSH2 0x891 JUMP JUMPDEST SWAP3 POP POP DUP2 SWAP1 SSTORE POP POP POP JUMP JUMPDEST PUSH1 0x4 PUSH1 0x20 MSTORE DUP1 PUSH1 0x0 MSTORE PUSH1 0x40 PUSH1 0x0 KECCAK256 PUSH1 0x0 SWAP2 POP SWAP1 POP SLOAD DUP2 JUMP JUMPDEST PUSH1 0x0 DUP1 PUSH1 0x2 DUP4 PUSH2 0x5CA SWAP2 SWAP1 PUSH2 0x8E7 JUMP JUMPDEST SWAP1 POP PUSH1 0x0 JUMPDEST DUP1 DUP3 EQ PUSH2 0x603 JUMPI DUP2 SWAP1 POP PUSH1 0x2 DUP3 DUP6 PUSH2 0x5E7 SWAP2 SWAP1 PUSH2 0x8E7 JUMP JUMPDEST DUP4 PUSH2 0x5F2 SWAP2 SWAP1 PUSH2 0x891 JUMP JUMPDEST PUSH2 0x5FC SWAP2 SWAP1 PUSH2 0x8E7 JUMP JUMPDEST SWAP2 POP PUSH2 0x5CF JUMP JUMPDEST DUP2 SWAP3 POP POP POP SWAP2 SWAP1 POP JUMP JUMPDEST PUSH1 0x0 DUP1 DUP3 EQ ISZERO PUSH2 0x620 JUMPI PUSH1 0x1 SWAP1 POP PUSH2 0x696 JUMP JUMPDEST PUSH1 0x1 PUSH1 0x2 DUP4 PUSH2 0x62F SWAP2 SWAP1 PUSH2 0xA3D JUMP JUMPDEST EQ ISZERO PUSH2 0x65D JUMPI DUP3 PUSH2 0x64C DUP5 PUSH1 0x1 DUP6 PUSH2 0x647 SWAP2 SWAP1 PUSH2 0x972 JUMP JUMPDEST PUSH2 0x60D JUMP JUMPDEST PUSH2 0x656 SWAP2 SWAP1 PUSH2 0x918 JUMP JUMPDEST SWAP1 POP PUSH2 0x696 JUMP JUMPDEST PUSH2 0x673 DUP4 PUSH1 0x2 DUP5 PUSH2 0x66E SWAP2 SWAP1 PUSH2 0x8E7 JUMP JUMPDEST PUSH2 0x60D JUMP JUMPDEST PUSH2 0x689 DUP5 PUSH1 0x2 DUP6 PUSH2 0x684 SWAP2 SWAP1 PUSH2 0x8E7 JUMP JUMPDEST PUSH2 0x60D JUMP JUMPDEST PUSH2 0x693 SWAP2 SWAP1 PUSH2 0x918 JUMP JUMPDEST SWAP1 POP JUMPDEST SWAP3 SWAP2 POP POP JUMP JUMPDEST PUSH1 0x0 DUP2 CALLDATALOAD SWAP1 POP PUSH2 0x6AB DUP2 PUSH2 0xC1F JUMP JUMPDEST SWAP3 SWAP2 POP POP JUMP JUMPDEST PUSH1 0x0 DUP2 CALLDATALOAD SWAP1 POP PUSH2 0x6C0 DUP2 PUSH2 0xC36 JUMP JUMPDEST SWAP3 SWAP2 POP POP JUMP JUMPDEST PUSH1 0x0 PUSH1 0x20 DUP3 DUP5 SUB SLT ISZERO PUSH2 0x6DC JUMPI PUSH2 0x6DB PUSH2 0xB2A JUMP JUMPDEST JUMPDEST PUSH1 0x0 PUSH2 0x6EA DUP5 DUP3 DUP6 ADD PUSH2 0x69C JUMP JUMPDEST SWAP2 POP POP SWAP3 SWAP2 POP POP JUMP JUMPDEST PUSH1 0x0 PUSH1 0x20 DUP3 DUP5 SUB SLT ISZERO PUSH2 0x709 JUMPI PUSH2 0x708 PUSH2 0xB2A JUMP JUMPDEST JUMPDEST PUSH1 0x0 PUSH2 0x717 DUP5 DUP3 DUP6 ADD PUSH2 0x6B1 JUMP JUMPDEST SWAP2 POP POP SWAP3 SWAP2 POP POP JUMP JUMPDEST PUSH2 0x729 DUP2 PUSH2 0x9B8 JUMP JUMPDEST DUP3 MSTORE POP POP JUMP JUMPDEST PUSH1 0x0 PUSH2 0x73C PUSH1 0x21 DUP4 PUSH2 0x880 JUMP JUMPDEST SWAP2 POP PUSH2 0x747 DUP3 PUSH2 0xB2F JUMP JUMPDEST PUSH1 0x40 DUP3 ADD SWAP1 POP SWAP2 SWAP1 POP JUMP JUMPDEST PUSH1 0x0 PUSH2 0x75F PUSH1 0x24 DUP4 PUSH2 0x880 JUMP JUMPDEST SWAP2 POP PUSH2 0x76A DUP3 PUSH2 0xB7E JUMP JUMPDEST PUSH1 0x40 DUP3 ADD SWAP1 POP SWAP2 SWAP1 POP JUMP JUMPDEST PUSH1 0x0 PUSH2 0x782 PUSH1 0x1E DUP4 PUSH2 0x880 JUMP JUMPDEST SWAP2 POP PUSH2 0x78D DUP3 PUSH2 0xBCD JUMP JUMPDEST PUSH1 0x20 DUP3 ADD SWAP1 POP SWAP2 SWAP1 POP JUMP JUMPDEST PUSH1 0x0 PUSH2 0x7A5 PUSH1 0x1F DUP4 PUSH2 0x880 JUMP JUMPDEST SWAP2 POP PUSH2 0x7B0 DUP3 PUSH2 0xBF6 JUMP JUMPDEST PUSH1 0x20 DUP3 ADD SWAP1 POP SWAP2 SWAP1 POP JUMP JUMPDEST PUSH2 0x7C4 DUP2 PUSH2 0x9EA JUMP JUMPDEST DUP3 MSTORE POP POP JUMP JUMPDEST PUSH1 0x0 PUSH1 0x20 DUP3 ADD SWAP1 POP PUSH2 0x7DF PUSH1 0x0 DUP4 ADD DUP5 PUSH2 0x720 JUMP JUMPDEST SWAP3 SWAP2 POP POP JUMP JUMPDEST PUSH1 0x0 PUSH1 0x20 DUP3 ADD SWAP1 POP DUP2 DUP2 SUB PUSH1 0x0 DUP4 ADD MSTORE PUSH2 0x7FE DUP2 PUSH2 0x72F JUMP JUMPDEST SWAP1 POP SWAP2 SWAP1 POP JUMP JUMPDEST PUSH1 0x0 PUSH1 0x20 DUP3 ADD SWAP1 POP DUP2 DUP2 SUB PUSH1 0x0 DUP4 ADD MSTORE PUSH2 0x81E DUP2 PUSH2 0x752 JUMP JUMPDEST SWAP1 POP SWAP2 SWAP1 POP JUMP JUMPDEST PUSH1 0x0 PUSH1 0x20 DUP3 ADD SWAP1 POP DUP2 DUP2 SUB PUSH1 0x0 DUP4 ADD MSTORE PUSH2 0x83E DUP2 PUSH2 0x775 JUMP JUMPDEST SWAP1 POP SWAP2 SWAP1 POP JUMP JUMPDEST PUSH1 0x0 PUSH1 0x20 DUP3 ADD SWAP1 POP DUP2 DUP2 SUB PUSH1 0x0 DUP4 ADD MSTORE PUSH2 0x85E DUP2 PUSH2 0x798 JUMP JUMPDEST SWAP1 POP SWAP2 SWAP1 POP JUMP JUMPDEST PUSH1 0x0 PUSH1 0x20 DUP3 ADD SWAP1 POP PUSH2 0x87A PUSH1 0x0 DUP4 ADD DUP5 PUSH2 0x7BB JUMP JUMPDEST SWAP3 SWAP2 POP POP JUMP JUMPDEST PUSH1 0x0 DUP3 DUP3 MSTORE PUSH1 0x20 DUP3 ADD SWAP1 POP SWAP3 SWAP2 POP POP JUMP JUMPDEST PUSH1 0x0 PUSH2 0x89C DUP3 PUSH2 0x9EA JUMP JUMPDEST SWAP2 POP PUSH2 0x8A7 DUP4 PUSH2 0x9EA JUMP JUMPDEST SWAP3 POP DUP3 PUSH32 0xFFFFFFFFFFFFFFFFFFFFFFFFFFFFFFFFFFFFFFFFFFFFFFFFFFFFFFFFFFFFFFFF SUB DUP3 GT ISZERO PUSH2 0x8DC JUMPI PUSH2 0x8DB PUSH2 0xA6E JUMP JUMPDEST JUMPDEST DUP3 DUP3 ADD SWAP1 POP SWAP3 SWAP2 POP POP JUMP JUMPDEST PUSH1 0x0 PUSH2 0x8F2 DUP3 PUSH2 0x9EA JUMP JUMPDEST SWAP2 POP PUSH2 0x8FD DUP4 PUSH2 0x9EA JUMP JUMPDEST SWAP3 POP DUP3 PUSH2 0x90D JUMPI PUSH2 0x90C PUSH2 0xA9D JUMP JUMPDEST JUMPDEST DUP3 DUP3 DIV SWAP1 POP SWAP3 SWAP2 POP POP JUMP JUMPDEST PUSH1 0x0 PUSH2 0x923 DUP3 PUSH2 0x9EA JUMP JUMPDEST SWAP2 POP PUSH2 0x92E DUP4 PUSH2 0x9EA JUMP JUMPDEST SWAP3 POP DUP2 PUSH32 0xFFFFFFFFFFFFFFFFFFFFFFFFFFFFFFFFFFFFFFFFFFFFFFFFFFFFFFFFFFFFFFFF DIV DUP4 GT DUP3 ISZERO ISZERO AND ISZERO PUSH2 0x967 JUMPI PUSH2 0x966 PUSH2 0xA6E JUMP JUMPDEST JUMPDEST DUP3 DUP3 MUL SWAP1 POP SWAP3 SWAP2 POP POP JUMP JUMPDEST PUSH1 0x0 PUSH2 0x97D DUP3 PUSH2 0x9EA JUMP JUMPDEST SWAP2 POP PUSH2 0x988 DUP4 PUSH2 0x9EA JUMP JUMPDEST SWAP3 POP DUP3 DUP3 LT ISZERO PUSH2 0x99B JUMPI PUSH2 0x99A PUSH2 0xA6E JUMP JUMPDEST JUMPDEST DUP3 DUP3 SUB SWAP1 POP SWAP3 SWAP2 POP POP JUMP JUMPDEST PUSH1 0x0 PUSH2 0x9B1 DUP3 PUSH2 0x9CA JUMP JUMPDEST SWAP1 POP SWAP2 SWAP1 POP JUMP JUMPDEST PUSH1 0x0 PUSH2 0x9C3 DUP3 PUSH2 0x9CA JUMP JUMPDEST SWAP1 POP SWAP2 SWAP1 POP JUMP JUMPDEST PUSH1 0x0 PUSH20 0xFFFFFFFFFFFFFFFFFFFFFFFFFFFFFFFFFFFFFFFF DUP3 AND SWAP1 POP SWAP2 SWAP1 POP JUMP JUMPDEST PUSH1 0x0 DUP2 SWAP1 POP SWAP2 SWAP1 POP JUMP JUMPDEST PUSH1 0x0 PUSH2 0x9FF DUP3 PUSH2 0x9EA JUMP JUMPDEST SWAP2 POP PUSH32 0xFFFFFFFFFFFFFFFFFFFFFFFFFFFFFFFFFFFFFFFFFFFFFFFFFFFFFFFFFFFFFFFF DUP3 EQ ISZERO PUSH2 0xA32 JUMPI PUSH2 0xA31 PUSH2 0xA6E JUMP JUMPDEST JUMPDEST PUSH1 0x1 DUP3 ADD SWAP1 POP SWAP2 SWAP1 POP JUMP JUMPDEST PUSH1 0x0 PUSH2 0xA48 DUP3 PUSH2 0x9EA JUMP JUMPDEST SWAP2 POP PUSH2 0xA53 DUP4 PUSH2 0x9EA JUMP JUMPDEST SWAP3 POP DUP3 PUSH2 0xA63 JUMPI PUSH2 0xA62 PUSH2 0xA9D JUMP JUMPDEST JUMPDEST DUP3 DUP3 MOD SWAP1 POP SWAP3 SWAP2 POP POP JUMP JUMPDEST PUSH32 0x4E487B7100000000000000000000000000000000000000000000000000000000 PUSH1 0x0 MSTORE PUSH1 0x11 PUSH1 0x4 MSTORE PUSH1 0x24 PUSH1 0x0 REVERT JUMPDEST PUSH32 0x4E487B7100000000000000000000000000000000000000000000000000000000 PUSH1 0x0 MSTORE PUSH1 0x12 PUSH1 0x4 MSTORE PUSH1 0x24 PUSH1 0x0 REVERT JUMPDEST PUSH32 0x4E487B7100000000000000000000000000000000000000000000000000000000 PUSH1 0x0 MSTORE PUSH1 0x21 PUSH1 0x4 MSTORE PUSH1 0x24 PUSH1 0x0 REVERT JUMPDEST PUSH32 0x4E487B7100000000000000000000000000000000000000000000000000000000 PUSH1 0x0 MSTORE PUSH1 0x32 PUSH1 0x4 MSTORE PUSH1 0x24 PUSH1 0x0 REVERT JUMPDEST PUSH1 0x0 DUP1 REVERT JUMPDEST PUSH32 0x636F6D706C657465642070686173652063616E6E6F7420626520737461727465 PUSH1 0x0 DUP3 ADD MSTORE PUSH32 0x6400000000000000000000000000000000000000000000000000000000000000 PUSH1 0x20 DUP3 ADD MSTORE POP JUMP JUMPDEST PUSH32 0x43616E6E6F7420616C6C6F7720616363657373206F74686572207468616E206F PUSH1 0x0 DUP3 ADD MSTORE PUSH32 0x776E657200000000000000000000000000000000000000000000000000000000 PUSH1 0x20 DUP3 ADD MSTORE POP JUMP JUMPDEST PUSH32 0x436F6E7472616374206E6F7420696E2072657175697265642073746174650000 PUSH1 0x0 DUP3 ADD MSTORE POP JUMP JUMPDEST PUSH32 0x6F6E676F696E672070686173652063616E6E6F74206265207374617274656400 PUSH1 0x0 DUP3 ADD MSTORE POP JUMP JUMPDEST PUSH2 0xC28 DUP2 PUSH2 0x9A6 JUMP JUMPDEST DUP2 EQ PUSH2 0xC33 JUMPI PUSH1 0x0 DUP1 REVERT JUMPDEST POP JUMP JUMPDEST PUSH2 0xC3F DUP2 PUSH2 0x9EA JUMP JUMPDEST DUP2 EQ PUSH2 0xC4A JUMPI PUSH1 0x0 DUP1 REVERT JUMPDEST POP JUMP INVALID LOG2 PUSH5 0x6970667358 0x22 SLT KECCAK256 0xE7 0xBA PUSH29 0x5533B909F7701CC2CE1762C4A71C473520BB59E7AA0F0DE426AC857427 PUSH5 0x736F6C6343 STOP ADDMOD SMOD STOP CALLER LOG2 PUSH5 0x6970667358 0x22 SLT KECCAK256 LT LOG1 PUSH2 0x99CA SUB KECCAK256 0xE7 DUP14 CHAINID 0xD6 DUP6 ISZERO SIGNEXTEND 0xD RETURNDATACOPY 0x4D 0xF9 0xC1 TIMESTAMP 0x2B 0xE9 COINBASE 0xBD 0xCE PUSH7 0x5D56B687A42864 PUSH20 0x6F6C634300080700336080604052348015610010 JUMPI PUSH1 0x0 DUP1 REVERT JUMPDEST POP CALLER PUSH1 0x2 PUSH1 0x0 PUSH2 0x100 EXP DUP2 SLOAD DUP2 PUSH20 0xFFFFFFFFFFFFFFFFFFFFFFFFFFFFFFFFFFFFFFFF MUL NOT AND SWAP1 DUP4 PUSH20 0xFFFFFFFFFFFFFFFFFFFFFFFFFFFFFFFFFFFFFFFF AND MUL OR SWAP1 SSTORE POP PUSH1 0x0 DUP1 PUSH1 0x0 PUSH2 0x100 EXP DUP2 SLOAD DUP2 PUSH1 0xFF MUL NOT AND SWAP1 DUP4 PUSH1 0x2 DUP2 GT ISZERO PUSH2 0x77 JUMPI PUSH2 0x76 PUSH2 0x81 JUMP JUMPDEST JUMPDEST MUL OR SWAP1 SSTORE POP PUSH2 0xB0 JUMP JUMPDEST PUSH32 0x4E487B7100000000000000000000000000000000000000000000000000000000 PUSH1 0x0 MSTORE PUSH1 0x21 PUSH1 0x4 MSTORE PUSH1 0x24 PUSH1 0x0 REVERT JUMPDEST PUSH2 0x7A7 DUP1 PUSH2 0xBF PUSH1 0x0 CODECOPY PUSH1 0x0 RETURN INVALID PUSH1 0x80 PUSH1 0x40 MSTORE PUSH1 0x4 CALLDATASIZE LT PUSH2 0x34 JUMPI PUSH1 0x0 CALLDATALOAD PUSH1 0xE0 SHR DUP1 PUSH4 0x1C1EB764 EQ PUSH2 0x39 JUMPI DUP1 PUSH4 0x2D1F0E30 EQ PUSH2 0x43 JUMPI DUP1 PUSH4 0xB00741CB EQ PUSH2 0x5F JUMPI JUMPDEST PUSH1 0x0 DUP1 REVERT JUMPDEST PUSH2 0x41 PUSH2 0x88 JUMP JUMPDEST STOP JUMPDEST PUSH2 0x5D PUSH1 0x4 DUP1 CALLDATASIZE SUB DUP2 ADD SWAP1 PUSH2 0x58 SWAP2 SWAP1 PUSH2 0x442 JUMP JUMPDEST PUSH2 0x1C9 JUMP JUMPDEST STOP JUMPDEST CALLVALUE DUP1 ISZERO PUSH2 0x6B JUMPI PUSH1 0x0 DUP1 REVERT JUMPDEST POP PUSH2 0x86 PUSH1 0x4 DUP1 CALLDATASIZE SUB DUP2 ADD SWAP1 PUSH2 0x81 SWAP2 SWAP1 PUSH2 0x415 JUMP JUMPDEST PUSH2 0x2B1 JUMP JUMPDEST STOP JUMPDEST PUSH1 0x0 CALLVALUE SWAP1 POP PUSH1 0x0 PUSH1 0x3 PUSH1 0x0 CALLER PUSH20 0xFFFFFFFFFFFFFFFFFFFFFFFFFFFFFFFFFFFFFFFF AND PUSH20 0xFFFFFFFFFFFFFFFFFFFFFFFFFFFFFFFFFFFFFFFF AND DUP2 MSTORE PUSH1 0x20 ADD SWAP1 DUP2 MSTORE PUSH1 0x20 ADD PUSH1 0x0 KECCAK256 SLOAD EQ ISZERO PUSH2 0x11E JUMPI DUP1 PUSH1 0x3 PUSH1 0x0 CALLER PUSH20 0xFFFFFFFFFFFFFFFFFFFFFFFFFFFFFFFFFFFFFFFF AND PUSH20 0xFFFFFFFFFFFFFFFFFFFFFFFFFFFFFFFFFFFFFFFF AND DUP2 MSTORE PUSH1 0x20 ADD SWAP1 DUP2 MSTORE PUSH1 0x20 ADD PUSH1 0x0 KECCAK256 DUP2 SWAP1 SSTORE POP PUSH2 0x1AD JUMP JUMPDEST DUP1 PUSH1 0x3 PUSH1 0x0 CALLER PUSH20 0xFFFFFFFFFFFFFFFFFFFFFFFFFFFFFFFFFFFFFFFF AND PUSH20 0xFFFFFFFFFFFFFFFFFFFFFFFFFFFFFFFFFFFFFFFF AND DUP2 MSTORE PUSH1 0x20 ADD SWAP1 DUP2 MSTORE PUSH1 0x20 ADD PUSH1 0x0 KECCAK256 SLOAD PUSH2 0x169 SWAP2 SWAP1 PUSH2 0x55C JUMP JUMPDEST PUSH1 0x3 PUSH1 0x0 CALLER PUSH20 0xFFFFFFFFFFFFFFFFFFFFFFFFFFFFFFFFFFFFFFFF AND PUSH20 0xFFFFFFFFFFFFFFFFFFFFFFFFFFFFFFFFFFFFFFFF AND DUP2 MSTORE PUSH1 0x20 ADD SWAP1 DUP2 MSTORE PUSH1 0x20 ADD PUSH1 0x0 KECCAK256 DUP2 SWAP1 SSTORE POP JUMPDEST DUP1 PUSH1 0x1 PUSH1 0x0 DUP3 DUP3 SLOAD PUSH2 0x1BF SWAP2 SWAP1 PUSH2 0x55C JUMP JUMPDEST SWAP3 POP POP DUP2 SWAP1 SSTORE POP POP JUMP JUMPDEST PUSH1 0x2 PUSH1 0x0 SWAP1 SLOAD SWAP1 PUSH2 0x100 EXP SWAP1 DIV PUSH20 0xFFFFFFFFFFFFFFFFFFFFFFFFFFFFFFFFFFFFFFFF AND PUSH20 0xFFFFFFFFFFFFFFFFFFFFFFFFFFFFFFFFFFFFFFFF AND CALLER PUSH20 0xFFFFFFFFFFFFFFFFFFFFFFFFFFFFFFFFFFFFFFFF AND EQ PUSH2 0x259 JUMPI PUSH1 0x40 MLOAD PUSH32 0x8C379A000000000000000000000000000000000000000000000000000000000 DUP2 MSTORE PUSH1 0x4 ADD PUSH2 0x250 SWAP1 PUSH2 0x50B JUMP JUMPDEST PUSH1 0x40 MLOAD DUP1 SWAP2 SUB SWAP1 REVERT JUMPDEST DUP1 PUSH20 0xFFFFFFFFFFFFFFFFFFFFFFFFFFFFFFFFFFFFFFFF AND PUSH2 0x8FC PUSH1 0x1 SLOAD DUP5 PUSH2 0x281 SWAP2 SWAP1 PUSH2 0x5B2 JUMP JUMPDEST SWAP1 DUP2 ISZERO MUL SWAP1 PUSH1 0x40 MLOAD PUSH1 0x0 PUSH1 0x40 MLOAD DUP1 DUP4 SUB DUP2 DUP6 DUP9 DUP9 CALL SWAP4 POP POP POP POP ISZERO DUP1 ISZERO PUSH2 0x2AC JUMPI RETURNDATASIZE PUSH1 0x0 DUP1 RETURNDATACOPY RETURNDATASIZE PUSH1 0x0 REVERT JUMPDEST POP POP POP JUMP JUMPDEST PUSH1 0x2 PUSH1 0x0 SWAP1 SLOAD SWAP1 PUSH2 0x100 EXP SWAP1 DIV PUSH20 0xFFFFFFFFFFFFFFFFFFFFFFFFFFFFFFFFFFFFFFFF AND PUSH20 0xFFFFFFFFFFFFFFFFFFFFFFFFFFFFFFFFFFFFFFFF AND CALLER PUSH20 0xFFFFFFFFFFFFFFFFFFFFFFFFFFFFFFFFFFFFFFFF AND EQ PUSH2 0x341 JUMPI PUSH1 0x40 MLOAD PUSH32 0x8C379A000000000000000000000000000000000000000000000000000000000 DUP2 MSTORE PUSH1 0x4 ADD PUSH2 0x338 SWAP1 PUSH2 0x50B JUMP JUMPDEST PUSH1 0x40 MLOAD DUP1 SWAP2 SUB SWAP1 REVERT JUMPDEST PUSH1 0x1 DUP2 EQ ISZERO PUSH2 0x396 JUMPI PUSH5 0x2DFDACA2D TIMESTAMP GT PUSH2 0x391 JUMPI PUSH1 0x40 MLOAD PUSH32 0x8C379A000000000000000000000000000000000000000000000000000000000 DUP2 MSTORE PUSH1 0x4 ADD PUSH2 0x388 SWAP1 PUSH2 0x52B JUMP JUMPDEST PUSH1 0x40 MLOAD DUP1 SWAP2 SUB SWAP1 REVERT JUMPDEST PUSH2 0x3E8 JUMP JUMPDEST PUSH1 0x2 DUP2 EQ ISZERO PUSH2 0x3E7 JUMPI PUSH5 0x2DFDC1BAD TIMESTAMP GT PUSH2 0x3E6 JUMPI PUSH1 0x40 MLOAD PUSH32 0x8C379A000000000000000000000000000000000000000000000000000000000 DUP2 MSTORE PUSH1 0x4 ADD PUSH2 0x3DD SWAP1 PUSH2 0x4EB JUMP JUMPDEST PUSH1 0x40 MLOAD DUP1 SWAP2 SUB SWAP1 REVERT JUMPDEST JUMPDEST JUMPDEST POP JUMP JUMPDEST PUSH1 0x0 DUP2 CALLDATALOAD SWAP1 POP PUSH2 0x3FA DUP2 PUSH2 0x743 JUMP JUMPDEST SWAP3 SWAP2 POP POP JUMP JUMPDEST PUSH1 0x0 DUP2 CALLDATALOAD SWAP1 POP PUSH2 0x40F DUP2 PUSH2 0x75A JUMP JUMPDEST SWAP3 SWAP2 POP POP JUMP JUMPDEST PUSH1 0x0 PUSH1 0x20 DUP3 DUP5 SUB SLT ISZERO PUSH2 0x42B JUMPI PUSH2 0x42A PUSH2 0x677 JUMP JUMPDEST JUMPDEST PUSH1 0x0 PUSH2 0x439 DUP5 DUP3 DUP6 ADD PUSH2 0x400 JUMP JUMPDEST SWAP2 POP POP SWAP3 SWAP2 POP POP JUMP JUMPDEST PUSH1 0x0 DUP1 PUSH1 0x40 DUP4 DUP6 SUB SLT ISZERO PUSH2 0x459 JUMPI PUSH2 0x458 PUSH2 0x677 JUMP JUMPDEST JUMPDEST PUSH1 0x0 PUSH2 0x467 DUP6 DUP3 DUP7 ADD PUSH2 0x400 JUMP JUMPDEST SWAP3 POP POP PUSH1 0x20 PUSH2 0x478 DUP6 DUP3 DUP7 ADD PUSH2 0x3EB JUMP JUMPDEST SWAP2 POP POP SWAP3 POP SWAP3 SWAP1 POP JUMP JUMPDEST PUSH1 0x0 PUSH2 0x48F PUSH1 0x21 DUP4 PUSH2 0x54B JUMP JUMPDEST SWAP2 POP PUSH2 0x49A DUP3 PUSH2 0x67C JUMP JUMPDEST PUSH1 0x40 DUP3 ADD SWAP1 POP SWAP2 SWAP1 POP JUMP JUMPDEST PUSH1 0x0 PUSH2 0x4B2 PUSH1 0x24 DUP4 PUSH2 0x54B JUMP JUMPDEST SWAP2 POP PUSH2 0x4BD DUP3 PUSH2 0x6CB JUMP JUMPDEST PUSH1 0x40 DUP3 ADD SWAP1 POP SWAP2 SWAP1 POP JUMP JUMPDEST PUSH1 0x0 PUSH2 0x4D5 PUSH1 0x1F DUP4 PUSH2 0x54B JUMP JUMPDEST SWAP2 POP PUSH2 0x4E0 DUP3 PUSH2 0x71A JUMP JUMPDEST PUSH1 0x20 DUP3 ADD SWAP1 POP SWAP2 SWAP1 POP JUMP JUMPDEST PUSH1 0x0 PUSH1 0x20 DUP3 ADD SWAP1 POP DUP2 DUP2 SUB PUSH1 0x0 DUP4 ADD MSTORE PUSH2 0x504 DUP2 PUSH2 0x482 JUMP JUMPDEST SWAP1 POP SWAP2 SWAP1 POP JUMP JUMPDEST PUSH1 0x0 PUSH1 0x20 DUP3 ADD SWAP1 POP DUP2 DUP2 SUB PUSH1 0x0 DUP4 ADD MSTORE PUSH2 0x524 DUP2 PUSH2 0x4A5 JUMP JUMPDEST SWAP1 POP SWAP2 SWAP1 POP JUMP JUMPDEST PUSH1 0x0 PUSH1 0x20 DUP3 ADD SWAP1 POP DUP2 DUP2 SUB PUSH1 0x0 DUP4 ADD MSTORE PUSH2 0x544 DUP2 PUSH2 0x4C8 JUMP JUMPDEST SWAP1 POP SWAP2 SWAP1 POP JUMP JUMPDEST PUSH1 0x0 DUP3 DUP3 MSTORE PUSH1 0x20 DUP3 ADD SWAP1 POP SWAP3 SWAP2 POP POP JUMP JUMPDEST PUSH1 0x0 PUSH2 0x567 DUP3 PUSH2 0x63E JUMP JUMPDEST SWAP2 POP PUSH2 0x572 DUP4 PUSH2 0x63E JUMP JUMPDEST SWAP3 POP DUP3 PUSH32 0xFFFFFFFFFFFFFFFFFFFFFFFFFFFFFFFFFFFFFFFFFFFFFFFFFFFFFFFFFFFFFFFF SUB DUP3 GT ISZERO PUSH2 0x5A7 JUMPI PUSH2 0x5A6 PUSH2 0x648 JUMP JUMPDEST JUMPDEST DUP3 DUP3 ADD SWAP1 POP SWAP3 SWAP2 POP POP JUMP JUMPDEST PUSH1 0x0 PUSH2 0x5BD DUP3 PUSH2 0x63E JUMP JUMPDEST SWAP2 POP PUSH2 0x5C8 DUP4 PUSH2 0x63E JUMP JUMPDEST SWAP3 POP DUP2 PUSH32 0xFFFFFFFFFFFFFFFFFFFFFFFFFFFFFFFFFFFFFFFFFFFFFFFFFFFFFFFFFFFFFFFF DIV DUP4 GT DUP3 ISZERO ISZERO AND ISZERO PUSH2 0x601 JUMPI PUSH2 0x600 PUSH2 0x648 JUMP JUMPDEST JUMPDEST DUP3 DUP3 MUL SWAP1 POP SWAP3 SWAP2 POP POP JUMP JUMPDEST PUSH1 0x0 PUSH2 0x617 DUP3 PUSH2 0x61E JUMP JUMPDEST SWAP1 POP SWAP2 SWAP1 POP JUMP JUMPDEST PUSH1 0x0 PUSH20 0xFFFFFFFFFFFFFFFFFFFFFFFFFFFFFFFFFFFFFFFF DUP3 AND SWAP1 POP SWAP2 SWAP1 POP JUMP JUMPDEST PUSH1 0x0 DUP2 SWAP1 POP SWAP2 SWAP1 POP JUMP JUMPDEST PUSH32 0x4E487B7100000000000000000000000000000000000000000000000000000000 PUSH1 0x0 MSTORE PUSH1 0x11 PUSH1 0x4 MSTORE PUSH1 0x24 PUSH1 0x0 REVERT JUMPDEST PUSH1 0x0 DUP1 REVERT JUMPDEST PUSH32 0x636F6D706C657465642070686173652063616E6E6F7420626520737461727465 PUSH1 0x0 DUP3 ADD MSTORE PUSH32 0x6400000000000000000000000000000000000000000000000000000000000000 PUSH1 0x20 DUP3 ADD MSTORE POP JUMP JUMPDEST PUSH32 0x43616E6E6F7420616C6C6F7720616363657373206F74686572207468616E206F PUSH1 0x0 DUP3 ADD MSTORE PUSH32 0x776E657200000000000000000000000000000000000000000000000000000000 PUSH1 0x20 DUP3 ADD MSTORE POP JUMP JUMPDEST PUSH32 0x6F6E676F696E672070686173652063616E6E6F74206265207374617274656400 PUSH1 0x0 DUP3 ADD MSTORE POP JUMP JUMPDEST PUSH2 0x74C DUP2 PUSH2 0x60C JUMP JUMPDEST DUP2 EQ PUSH2 0x757 JUMPI PUSH1 0x0 DUP1 REVERT JUMPDEST POP JUMP JUMPDEST PUSH2 0x763 DUP2 PUSH2 0x63E JUMP JUMPDEST DUP2 EQ PUSH2 0x76E JUMPI PUSH1 0x0 DUP1 REVERT JUMPDEST POP JUMP INVALID LOG2 PUSH5 0x6970667358 0x22 SLT KECCAK256 ORIGIN DUP6 RETURNDATACOPY 0xFC 0xCE 0xD5 0xC9 0xF8 PUSH4 0xCDD42A2C SWAP12 0xB4 DUP10 PUSH18 0xB449F11E6F73227A14AC6753AA98ED64736F PUSH13 0x63430008070033000000000000 "
		},
		"gasEstimates": {
			"creation": {
				"codeDepositCost": "1483400",
				"executionCost": "infinite",
				"totalCost": "infinite"
			},
			"external": {
				"calandPayoutMatch()": "infinite",
				"changeState(uint256)": "5054",
				"createProject(address,uint256)": "infinite",
				"sponsorPool()": "2622"
			}
		},
		"methodIdentifiers": {
			"calandPayoutMatch()": "1a3b32dc",
			"changeState(uint256)": "b00741cb",
			"createProject(address,uint256)": "e82d6572",
			"sponsorPool()": "e75c6025"
		}
	},
	"abi": [
		{
			"inputs": [],
			"stateMutability": "nonpayable",
			"type": "constructor"
		},
		{
			"inputs": [],
			"name": "calandPayoutMatch",
			"outputs": [],
			"stateMutability": "nonpayable",
			"type": "function"
		},
		{
			"inputs": [
				{
					"internalType": "uint256",
					"name": "state",
					"type": "uint256"
				}
			],
			"name": "changeState",
			"outputs": [],
			"stateMutability": "nonpayable",
			"type": "function"
		},
		{
			"inputs": [
				{
					"internalType": "address payable",
					"name": "projectOwner",
					"type": "address"
				},
				{
					"internalType": "uint256",
					"name": "projectID",
					"type": "uint256"
				}
			],
			"name": "createProject",
			"outputs": [],
			"stateMutability": "nonpayable",
			"type": "function"
		},
		{
			"inputs": [],
			"name": "sponsorPool",
			"outputs": [
				{
					"internalType": "contract Pool",
					"name": "",
					"type": "address"
				}
			],
			"stateMutability": "view",
			"type": "function"
		}
	]
}